{
  "contractName": "AnswerFactory",
  "abi": [
    {
      "constant": true,
      "inputs": [
        {
          "name": "",
          "type": "uint256"
        }
      ],
      "name": "answers",
      "outputs": [
        {
          "name": "owner",
          "type": "address"
        },
        {
          "name": "upvotes",
          "type": "uint16"
        }
      ],
      "payable": false,
      "stateMutability": "view",
      "type": "function"
    },
    {
      "constant": false,
      "inputs": [],
      "name": "extendTime",
      "outputs": [],
      "payable": true,
      "stateMutability": "payable",
      "type": "function"
    },
    {
      "anonymous": false,
      "inputs": [
        {
          "indexed": false,
          "name": "answerId",
          "type": "uint256"
        },
        {
          "indexed": false,
          "name": "answerer",
          "type": "address"
        }
      ],
      "name": "NewAnswer",
      "type": "event"
    },
    {
      "anonymous": false,
      "inputs": [
        {
          "indexed": false,
          "name": "endTime",
          "type": "uint256"
        },
        {
          "indexed": false,
          "name": "bounty",
          "type": "uint256"
        }
      ],
      "name": "TimeExtended",
      "type": "event"
    },
    {
      "constant": false,
      "inputs": [],
      "name": "createAnswer",
      "outputs": [],
      "payable": true,
      "stateMutability": "payable",
      "type": "function"
    }
  ],
  "bytecode": "0x608060405234801561001057600080fd5b5061035a806100206000396000f300608060405260043610610057576000357c0100000000000000000000000000000000000000000000000000000000900463ffffffff16806317599cc51461005c57806391f2eca5146100d8578063abb6ae89146100e2575b600080fd5b34801561006857600080fd5b50610087600480360381019080803590602001909291905050506100ec565b604051808373ffffffffffffffffffffffffffffffffffffffff1673ffffffffffffffffffffffffffffffffffffffff1681526020018261ffff1661ffff1681526020019250505060405180910390f35b6100e0610149565b005b6100ea610294565b005b6007818154811015156100fb57fe5b906000526020600020016000915090508060000160009054906101000a900473ffffffffffffffffffffffffffffffffffffffff16908060000160149054906101000a900461ffff16905082565b6000600654341015151561015c57600080fd5b6001600760408051908101604052803373ffffffffffffffffffffffffffffffffffffffff168152602001600061ffff1681525090806001815401808255809150509060018203906000526020600020016000909192909190915060008201518160000160006101000a81548173ffffffffffffffffffffffffffffffffffffffff021916908373ffffffffffffffffffffffffffffffffffffffff16021790555060208201518160000160146101000a81548161ffff021916908361ffff16021790555050500390507f88085c10096cc135e6ad1e349dae731e044ffa7b1ce1375a9b992e099460cf5f8133604051808381526020018273ffffffffffffffffffffffffffffffffffffffff1673ffffffffffffffffffffffffffffffffffffffff1681526020019250505060405180910390a150565b60025442111515156102a557600080fd5b62278d006001541080156102ba575060005434115b15156102c557600080fd5b6000546003600082825401925050819055506001546002600082825401925050819055507fc911152b4f80a4c74cd160fe78fa7758dfc5c82284a3eddb9475c730f0cd4e06600254600354604051808381526020018281526020019250505060405180910390a15600a165627a7a7230582054c95aada9a210dc822d3fbb245a6962dccbeacd70762d0b9588f301ae527a820029",
  "source": "pragma solidity ^0.4.23;\n\nimport \"./Question.sol\";\n\ncontract AnswerFactory is Question {\n\n    uint answerFee;\n\n    event NewAnswer(uint answerId, address answerer);\n\n    struct Answer {\n        address owner;\n        uint16 upvotes;\n    }\n\n    Answer[] public answers;\n\n    function createAnswer() public payable {\n        require(msg.value >= answerFee);\n        uint id = answers.push(Answer(msg.sender, 0)) - 1;\n        emit NewAnswer(id, msg.sender);\n    }\n\n}",
  "sourcePath": "/home/williamc/projects/t/thesis/contracts/contracts/AnswerFactory.sol",
  "compiler": {
    "name": "solc",
    "version": "0.4.23+commit.124ca40d.Emscripten.clang"
  },
  "schemaVersion": "2.0.0",
  "updatedAt": "2018-05-19T23:06:38.748Z"
}