{
  "contractName": "AnswerFactory",
  "abi": [
    {
      "constant": true,
      "inputs": [
        {
          "name": "",
          "type": "uint256"
        }
      ],
      "name": "answers",
      "outputs": [
        {
          "name": "owner",
          "type": "address"
        },
        {
          "name": "upvotes",
          "type": "uint256"
        }
      ],
      "payable": false,
      "stateMutability": "view",
      "type": "function"
    },
    {
      "constant": true,
      "inputs": [
        {
          "name": "",
          "type": "uint256"
        }
      ],
      "name": "questions",
      "outputs": [
        {
          "name": "minBounty",
          "type": "uint256"
        },
        {
          "name": "duration",
          "type": "uint256"
        },
        {
          "name": "endTime",
          "type": "uint256"
        },
        {
          "name": "bounty",
          "type": "uint256"
        },
        {
          "name": "asker",
          "type": "address"
        },
        {
          "name": "answerFee",
          "type": "uint256"
        },
        {
          "name": "payedOut",
          "type": "bool"
        }
      ],
      "payable": false,
      "stateMutability": "view",
      "type": "function"
    },
    {
      "constant": true,
      "inputs": [
        {
          "name": "",
          "type": "uint256"
        }
      ],
      "name": "answerIdToQuestionId",
      "outputs": [
        {
          "name": "",
          "type": "uint256"
        }
      ],
      "payable": false,
      "stateMutability": "view",
      "type": "function"
    },
    {
      "constant": false,
      "inputs": [
        {
          "name": "_minBounty",
          "type": "uint256"
        }
      ],
      "name": "setMinBounty",
      "outputs": [],
      "payable": false,
      "stateMutability": "nonpayable",
      "type": "function"
    },
    {
      "constant": true,
      "inputs": [],
      "name": "getDuration",
      "outputs": [
        {
          "name": "",
          "type": "uint256"
        }
      ],
      "payable": false,
      "stateMutability": "view",
      "type": "function"
    },
    {
      "constant": true,
      "inputs": [],
      "name": "getQuestionsCount",
      "outputs": [
        {
          "name": "",
          "type": "uint256"
        }
      ],
      "payable": false,
      "stateMutability": "view",
      "type": "function"
    },
    {
      "constant": true,
      "inputs": [],
      "name": "getAnswerFee",
      "outputs": [
        {
          "name": "",
          "type": "uint256"
        }
      ],
      "payable": false,
      "stateMutability": "view",
      "type": "function"
    },
    {
      "constant": true,
      "inputs": [],
      "name": "getMinBounty",
      "outputs": [
        {
          "name": "",
          "type": "uint256"
        }
      ],
      "payable": false,
      "stateMutability": "view",
      "type": "function"
    },
    {
      "constant": false,
      "inputs": [],
      "name": "newQuestion",
      "outputs": [],
      "payable": true,
      "stateMutability": "payable",
      "type": "function"
    },
    {
      "constant": false,
      "inputs": [
        {
          "name": "_answerFee",
          "type": "uint256"
        }
      ],
      "name": "setAnswerFee",
      "outputs": [],
      "payable": false,
      "stateMutability": "nonpayable",
      "type": "function"
    },
    {
      "constant": false,
      "inputs": [
        {
          "name": "_duration",
          "type": "uint256"
        }
      ],
      "name": "setDuration",
      "outputs": [],
      "payable": false,
      "stateMutability": "nonpayable",
      "type": "function"
    },
    {
      "anonymous": false,
      "inputs": [
        {
          "indexed": false,
          "name": "questionId",
          "type": "uint256"
        },
        {
          "indexed": false,
          "name": "answerId",
          "type": "uint256"
        },
        {
          "indexed": false,
          "name": "answerer",
          "type": "address"
        }
      ],
      "name": "NewAnswer",
      "type": "event"
    },
    {
      "anonymous": false,
      "inputs": [
        {
          "indexed": false,
          "name": "questionId",
          "type": "uint256"
        },
        {
          "indexed": false,
          "name": "minBounty",
          "type": "uint256"
        },
        {
          "indexed": false,
          "name": "duration",
          "type": "uint256"
        },
        {
          "indexed": false,
          "name": "endTime",
          "type": "uint256"
        },
        {
          "indexed": false,
          "name": "bounty",
          "type": "uint256"
        },
        {
          "indexed": false,
          "name": "asker",
          "type": "address"
        },
        {
          "indexed": false,
          "name": "answerFee",
          "type": "uint256"
        }
      ],
      "name": "NewQuestion",
      "type": "event"
    },
    {
      "constant": false,
      "inputs": [
        {
          "name": "_questionId",
          "type": "uint256"
        }
      ],
      "name": "createAnswer",
      "outputs": [],
      "payable": true,
      "stateMutability": "payable",
      "type": "function"
    }
  ],
  "bytecode": "0x6080604052336000806101000a81548173ffffffffffffffffffffffffffffffffffffffff021916908373ffffffffffffffffffffffffffffffffffffffff16021790555061090b806100536000396000f3006080604052600436106100ba576000357c0100000000000000000000000000000000000000000000000000000000900463ffffffff16806317599cc5146100bf57806331b1b978146101335780633a5ae6de146101ce5780633b58f49a1461020f57806360c5c9721461023c578063ad2e8c9b1461025c578063c2e112d214610287578063c5d56498146102b2578063ce9aec2a146102dd578063e10e20ab14610308578063f41c1c9314610312578063f6be71d11461033f575b600080fd5b3480156100cb57600080fd5b506100ea6004803603810190808035906020019092919050505061036c565b604051808373ffffffffffffffffffffffffffffffffffffffff1673ffffffffffffffffffffffffffffffffffffffff1681526020018281526020019250505060405180910390f35b34801561013f57600080fd5b5061015e600480360381019080803590602001909291905050506103bf565b604051808881526020018781526020018681526020018581526020018473ffffffffffffffffffffffffffffffffffffffff1673ffffffffffffffffffffffffffffffffffffffff1681526020018381526020018215151515815260200197505050505050505060405180910390f35b3480156101da57600080fd5b506101f96004803603810190808035906020019092919050505061043d565b6040518082815260200191505060405180910390f35b34801561021b57600080fd5b5061023a60048036038101908080359060200190929190505050610455565b005b61025a600480360381019080803590602001909291905050506104ba565b005b34801561026857600080fd5b50610271610613565b6040518082815260200191505060405180910390f35b34801561029357600080fd5b5061029c61061d565b6040518082815260200191505060405180910390f35b3480156102be57600080fd5b506102c761062a565b6040518082815260200191505060405180910390f35b3480156102e957600080fd5b506102f2610634565b6040518082815260200191505060405180910390f35b61031061063e565b005b34801561031e57600080fd5b5061033d60048036038101908080359060200190929190505050610815565b005b34801561034b57600080fd5b5061036a6004803603810190808035906020019092919050505061087a565b005b60068181548110151561037b57fe5b90600052602060002090600202016000915090508060000160009054906101000a900473ffffffffffffffffffffffffffffffffffffffff16908060010154905082565b6004818154811015156103ce57fe5b90600052602060002090600702016000915090508060000154908060010154908060020154908060030154908060040160009054906101000a900473ffffffffffffffffffffffffffffffffffffffff16908060050154908060060160009054906101000a900460ff16905087565b60056020528060005260406000206000915090505481565b6000809054906101000a900473ffffffffffffffffffffffffffffffffffffffff1673ffffffffffffffffffffffffffffffffffffffff163373ffffffffffffffffffffffffffffffffffffffff161415156104b057600080fd5b8060018190555050565b60006004828154811015156104cb57fe5b90600052602060002090600702016005015434101515156104eb57600080fd5b6001600660408051908101604052803373ffffffffffffffffffffffffffffffffffffffff16815260200160008152509080600181540180825580915050906001820390600052602060002090600202016000909192909190915060008201518160000160006101000a81548173ffffffffffffffffffffffffffffffffffffffff021916908373ffffffffffffffffffffffffffffffffffffffff1602179055506020820151816001015550500390507fe1e68d6c2fb9835e7d7b5bf35cb1d87e6490040c381d19bf7b31d6cda7181074828233604051808481526020018381526020018273ffffffffffffffffffffffffffffffffffffffff1673ffffffffffffffffffffffffffffffffffffffff168152602001935050505060405180910390a15050565b6000600254905090565b6000600480549050905090565b6000600354905090565b6000600154905090565b6000806001543411151561065157600080fd5b600254420191506001600460e060405190810160405280600154815260200160025481526020018581526020013481526020013373ffffffffffffffffffffffffffffffffffffffff168152602001600354815260200160001515815250908060018154018082558091505090600182039060005260206000209060070201600090919290919091506000820151816000015560208201518160010155604082015181600201556060820151816003015560808201518160040160006101000a81548173ffffffffffffffffffffffffffffffffffffffff021916908373ffffffffffffffffffffffffffffffffffffffff16021790555060a0820151816005015560c08201518160060160006101000a81548160ff02191690831515021790555050500390507fb0761b92d1c7f833c1f295bd18dfd6a18aa9fad5abc1cce13002637203804d4381600154600254853433600354604051808881526020018781526020018681526020018581526020018481526020018373ffffffffffffffffffffffffffffffffffffffff1673ffffffffffffffffffffffffffffffffffffffff16815260200182815260200197505050505050505060405180910390a15050565b6000809054906101000a900473ffffffffffffffffffffffffffffffffffffffff1673ffffffffffffffffffffffffffffffffffffffff163373ffffffffffffffffffffffffffffffffffffffff1614151561087057600080fd5b8060038190555050565b6000809054906101000a900473ffffffffffffffffffffffffffffffffffffffff1673ffffffffffffffffffffffffffffffffffffffff163373ffffffffffffffffffffffffffffffffffffffff161415156108d557600080fd5b80600281905550505600a165627a7a72305820844c07a5dc7f1bbd671535f81bf38af729a83e4481034903468ae6099c5470bb0029",
  "source": "pragma solidity ^0.4.23;\n\nimport \"./QuestionFactory.sol\";\n\ncontract AnswerFactory is QuestionFactory {\n\n    event NewAnswer(uint questionId, uint answerId, address answerer);\n\n    struct Answer {\n        address owner;\n        uint upvotes;\n    }\n\n    mapping(uint => uint) public answerIdToQuestionId;\n\n    Answer[] public answers;\n\n    function createAnswer(uint _questionId) public payable {\n        require(msg.value >= questions[_questionId].answerFee);\n        uint id = answers.push(Answer(msg.sender, 0)) - 1;\n        emit NewAnswer(_questionId, id, msg.sender);\n    }\n\n}",
  "sourcePath": "/home/williamc/projects/t/thesis/contracts/contracts/AnswerFactory.sol",
  "compiler": {
    "name": "solc",
    "version": "0.4.23+commit.124ca40d.Emscripten.clang"
  },
  "schemaVersion": "2.0.0",
  "updatedAt": "2018-05-21T07:33:42.879Z"
}