{
  "contractName": "QuestionInterface",
  "abi": [
    {
      "constant": false,
      "inputs": [],
      "name": "payoutWinner",
      "outputs": [],
      "payable": false,
      "stateMutability": "nonpayable",
      "type": "function"
    },
    {
      "constant": true,
      "inputs": [
        {
          "name": "",
          "type": "uint256"
        }
      ],
      "name": "answers",
      "outputs": [
        {
          "name": "owner",
          "type": "address"
        },
        {
          "name": "upvotes",
          "type": "uint16"
        }
      ],
      "payable": false,
      "stateMutability": "view",
      "type": "function"
    },
    {
      "constant": false,
      "inputs": [],
      "name": "createAnswer",
      "outputs": [],
      "payable": true,
      "stateMutability": "payable",
      "type": "function"
    },
    {
      "constant": true,
      "inputs": [
        {
          "name": "",
          "type": "address"
        }
      ],
      "name": "voters",
      "outputs": [
        {
          "name": "vote",
          "type": "uint256"
        },
        {
          "name": "voted",
          "type": "bool"
        },
        {
          "name": "reputation",
          "type": "uint16"
        }
      ],
      "payable": false,
      "stateMutability": "view",
      "type": "function"
    },
    {
      "constant": false,
      "inputs": [],
      "name": "extendTime",
      "outputs": [],
      "payable": true,
      "stateMutability": "payable",
      "type": "function"
    },
    {
      "constant": false,
      "inputs": [
        {
          "name": "_voter",
          "type": "address"
        },
        {
          "name": "_reputation",
          "type": "uint16"
        }
      ],
      "name": "giveRightToVote",
      "outputs": [],
      "payable": false,
      "stateMutability": "nonpayable",
      "type": "function"
    },
    {
      "constant": false,
      "inputs": [
        {
          "name": "_answerId",
          "type": "uint256"
        }
      ],
      "name": "upVote",
      "outputs": [],
      "payable": false,
      "stateMutability": "nonpayable",
      "type": "function"
    },
    {
      "inputs": [
        {
          "name": "_minBounty",
          "type": "uint256"
        },
        {
          "name": "_duration",
          "type": "uint256"
        },
        {
          "name": "_asker",
          "type": "address"
        },
        {
          "name": "_answerFee",
          "type": "uint256"
        }
      ],
      "payable": true,
      "stateMutability": "payable",
      "type": "constructor"
    },
    {
      "anonymous": false,
      "inputs": [
        {
          "indexed": false,
          "name": "answerId",
          "type": "uint256"
        },
        {
          "indexed": false,
          "name": "answerer",
          "type": "address"
        }
      ],
      "name": "NewVote",
      "type": "event"
    },
    {
      "anonymous": false,
      "inputs": [
        {
          "indexed": false,
          "name": "answerId",
          "type": "uint256"
        },
        {
          "indexed": false,
          "name": "answerer",
          "type": "address"
        }
      ],
      "name": "NewAnswer",
      "type": "event"
    },
    {
      "anonymous": false,
      "inputs": [
        {
          "indexed": false,
          "name": "endTime",
          "type": "uint256"
        },
        {
          "indexed": false,
          "name": "bounty",
          "type": "uint256"
        }
      ],
      "name": "TimeExtended",
      "type": "event"
    },
    {
      "constant": false,
      "inputs": [],
      "name": "donateToBounty",
      "outputs": [],
      "payable": true,
      "stateMutability": "payable",
      "type": "function"
    }
  ],
  "bytecode": "0x6080604052604051608080610a2d83398101806040528101908080519060200190929190805190602001909291908051906020019092919080519060200190929190505050836000819055508260018190555033600560006101000a81548173ffffffffffffffffffffffffffffffffffffffff021916908373ffffffffffffffffffffffffffffffffffffffff16021790555060015442016002819055503460038190555081600460006101000a81548173ffffffffffffffffffffffffffffffffffffffff021916908373ffffffffffffffffffffffffffffffffffffffff160217905550806006819055505050505061092d806101006000396000f30060806040526004361061008e576000357c0100000000000000000000000000000000000000000000000000000000900463ffffffff168063075524631461009357806317599cc5146100aa57806391f2eca514610126578063a3ec138d14610130578063a82c79d6146101a1578063abb6ae89146101ab578063ea14ed25146101b5578063ec859db514610206575b600080fd5b34801561009f57600080fd5b506100a8610233565b005b3480156100b657600080fd5b506100d5600480360381019080803590602001909291905050506103fd565b604051808373ffffffffffffffffffffffffffffffffffffffff1673ffffffffffffffffffffffffffffffffffffffff1681526020018261ffff1661ffff1681526020019250505060405180910390f35b61012e61045a565b005b34801561013c57600080fd5b50610171600480360381019080803573ffffffffffffffffffffffffffffffffffffffff1690602001909291905050506105a5565b60405180848152602001831515151581526020018261ffff1661ffff168152602001935050505060405180910390f35b6101a96105ea565b005b6101b36105fc565b005b3480156101c157600080fd5b50610204600480360381019080803573ffffffffffffffffffffffffffffffffffffffff169060200190929190803561ffff169060200190929190505050610696565b005b34801561021257600080fd5b5061023160048036038101908080359060200190929190505050610753565b005b600061023d6108cd565b60006002544211151561024f57600080fd5b6001600780549050101561026e576201518042016002819055506103f8565b60009250600090505b600780549050811015610395578261ffff1660078281548110151561029857fe5b9060005260206000200160000160149054906101000a900461ffff1661ffff161115610388576007818154811015156102cd57fe5b9060005260206000200160000160149054906101000a900461ffff1692506007818154811015156102fa57fe5b906000526020600020016040805190810160405290816000820160009054906101000a900473ffffffffffffffffffffffffffffffffffffffff1673ffffffffffffffffffffffffffffffffffffffff1673ffffffffffffffffffffffffffffffffffffffff1681526020016000820160149054906101000a900461ffff1661ffff1661ffff168152505091505b8080600101915050610277565b816000015173ffffffffffffffffffffffffffffffffffffffff166108fc3073ffffffffffffffffffffffffffffffffffffffff16319081150290604051600060405180830381858888f193505050501580156103f6573d6000803e3d6000fd5b505b505050565b60078181548110151561040c57fe5b906000526020600020016000915090508060000160009054906101000a900473ffffffffffffffffffffffffffffffffffffffff16908060000160149054906101000a900461ffff16905082565b6000600654341015151561046d57600080fd5b6001600760408051908101604052803373ffffffffffffffffffffffffffffffffffffffff168152602001600061ffff1681525090806001815401808255809150509060018203906000526020600020016000909192909190915060008201518160000160006101000a81548173ffffffffffffffffffffffffffffffffffffffff021916908373ffffffffffffffffffffffffffffffffffffffff16021790555060208201518160000160146101000a81548161ffff021916908361ffff16021790555050500390507f88085c10096cc135e6ad1e349dae731e044ffa7b1ce1375a9b992e099460cf5f8133604051808381526020018273ffffffffffffffffffffffffffffffffffffffff1673ffffffffffffffffffffffffffffffffffffffff1681526020019250505060405180910390a150565b60086020528060005260406000206000915090508060000154908060010160009054906101000a900460ff16908060010160019054906101000a900461ffff16905083565b34600360008282540192505081905550565b600254421115151561060d57600080fd5b62278d00600154108015610622575060005434115b151561062d57600080fd5b6000546003600082825401925050819055506001546002600082825401925050819055507fc911152b4f80a4c74cd160fe78fa7758dfc5c82284a3eddb9475c730f0cd4e06600254600354604051808381526020018281526020019250505060405180910390a1565b600560009054906101000a900473ffffffffffffffffffffffffffffffffffffffff1673ffffffffffffffffffffffffffffffffffffffff163373ffffffffffffffffffffffffffffffffffffffff161415156106f257600080fd5b80600860008473ffffffffffffffffffffffffffffffffffffffff1673ffffffffffffffffffffffffffffffffffffffff16815260200190815260200160002060010160016101000a81548161ffff021916908361ffff1602179055505050565b6000600254421115151561076657600080fd5b600860003373ffffffffffffffffffffffffffffffffffffffff1673ffffffffffffffffffffffffffffffffffffffff16815260200190815260200160002090508060010160009054906101000a900460ff1615151561082e576040517f08c379a00000000000000000000000000000000000000000000000000000000081526004018080602001828103825260118152602001807f63616e6e6f7420766f746520747769636500000000000000000000000000000081525060200191505060405180910390fd5b60018160010160006101000a81548160ff0219169083151502179055508181600001819055508060010160019054906101000a900461ffff1660078381548110151561087657fe5b9060005260206000200160000160149054906101000a900461ffff16016007838154811015156108a257fe5b9060005260206000200160000160146101000a81548161ffff021916908361ffff1602179055505050565b6040805190810160405280600073ffffffffffffffffffffffffffffffffffffffff168152602001600061ffff16815250905600a165627a7a7230582084b3ae6b9874418402d7cb87109a54fe7c9e6e80dbeedc7f15e8ea77ace926010029",
  "source": "pragma solidity ^0.4.23;\n\nimport \"./UpVote.sol\";\n\n\ncontract QuestionInterface is UpVote {\n\n    constructor(uint _minBounty, uint _duration, address _asker, uint _answerFee) public payable {\n        minBounty = _minBounty;\n        duration = _duration;\n        owner = msg.sender;\n        endTime = now + duration;\n        bounty = msg.value;\n        asker = _asker;\n        answerFee = _answerFee;\n    }\n\n    function donateToBounty() public payable {\n        bounty += msg.value;\n    }\n}",
  "sourcePath": "/home/williamc/projects/t/thesis/contracts/contracts/QuestionInterface.sol",
  "compiler": {
    "name": "solc",
    "version": "0.4.23+commit.124ca40d.Emscripten.clang"
  },
  "schemaVersion": "2.0.0",
  "updatedAt": "2018-05-19T23:38:09.908Z"
}