{
  "contractName": "Question",
  "abi": [
    {
      "anonymous": false,
      "inputs": [
        {
          "indexed": false,
          "name": "endTime",
          "type": "uint256"
        },
        {
          "indexed": false,
          "name": "bounty",
          "type": "uint256"
        }
      ],
      "name": "TimeExtended",
      "type": "event"
    },
    {
      "constant": false,
      "inputs": [],
      "name": "extendTime",
      "outputs": [],
      "payable": true,
      "stateMutability": "payable",
      "type": "function"
    }
  ],
  "bytecode": "0x608060405234801561001057600080fd5b5061010f806100206000396000f300608060405260043610603f576000357c0100000000000000000000000000000000000000000000000000000000900463ffffffff168063abb6ae89146044575b600080fd5b604a604c565b005b6002544211151515605c57600080fd5b62278d006001541080156070575060005434115b1515607a57600080fd5b6000546003600082825401925050819055506001546002600082825401925050819055507fc911152b4f80a4c74cd160fe78fa7758dfc5c82284a3eddb9475c730f0cd4e06600254600354604051808381526020018281526020019250505060405180910390a15600a165627a7a723058206838c61a7ccc0abc1c33b7af806583fc633df5bc317673dc9481c54cd0dcecbf0029",
  "source": "pragma solidity ^0.4.23;\n\ncontract Question {\n\n    uint minBounty;\n    uint duration;\n    uint endTime;\n    uint bounty;\n    address asker;\n    address owner;\n\n    event TimeExtended(uint endTime, uint bounty);\n\n    function extendTime() public payable questionOpen {\n        require(duration < 30 days && msg.value > minBounty);\n        bounty += minBounty;\n        endTime += duration;\n        emit TimeExtended(endTime, bounty);\n    }\n\n\n    modifier questionOpen() {\n        require(now <= endTime);\n        _;\n    }\n\n    modifier onlyOwner() {\n        require(msg.sender == owner);\n        _;\n    }\n}\n\n",
  "sourcePath": "/home/williamc/projects/t/thesis/contracts/contracts/Question.sol",
  "compiler": {
    "name": "solc",
    "version": "0.4.23+commit.124ca40d.Emscripten.clang"
  },
  "schemaVersion": "2.0.0",
  "updatedAt": "2018-05-19T23:06:38.749Z"
}