{
  "contractName": "QuestionFactory",
  "abi": [
    {
      "constant": true,
      "inputs": [
        {
          "name": "",
          "type": "uint256"
        }
      ],
      "name": "questions",
      "outputs": [
        {
          "name": "endTime",
          "type": "uint256"
        },
        {
          "name": "bounty",
          "type": "uint256"
        },
        {
          "name": "asker",
          "type": "address"
        },
        {
          "name": "answerFee",
          "type": "uint256"
        },
        {
          "name": "payedOut",
          "type": "bool"
        }
      ],
      "payable": false,
      "stateMutability": "view",
      "type": "function"
    },
    {
      "constant": false,
      "inputs": [],
      "name": "renounceOwnership",
      "outputs": [],
      "payable": false,
      "stateMutability": "nonpayable",
      "type": "function"
    },
    {
      "constant": true,
      "inputs": [],
      "name": "owner",
      "outputs": [
        {
          "name": "",
          "type": "address"
        }
      ],
      "payable": false,
      "stateMutability": "view",
      "type": "function"
    },
    {
      "constant": false,
      "inputs": [
        {
          "name": "newOwner",
          "type": "address"
        }
      ],
      "name": "transferOwnership",
      "outputs": [],
      "payable": false,
      "stateMutability": "nonpayable",
      "type": "function"
    },
    {
      "inputs": [],
      "payable": false,
      "stateMutability": "nonpayable",
      "type": "constructor"
    },
    {
      "anonymous": false,
      "inputs": [
        {
          "indexed": false,
          "name": "questionId",
          "type": "uint256"
        },
        {
          "indexed": false,
          "name": "endTime",
          "type": "uint256"
        },
        {
          "indexed": false,
          "name": "bounty",
          "type": "uint256"
        },
        {
          "indexed": false,
          "name": "asker",
          "type": "address"
        },
        {
          "indexed": false,
          "name": "answerFee",
          "type": "uint256"
        }
      ],
      "name": "NewQuestion",
      "type": "event"
    },
    {
      "anonymous": false,
      "inputs": [
        {
          "indexed": true,
          "name": "previousOwner",
          "type": "address"
        }
      ],
      "name": "OwnershipRenounced",
      "type": "event"
    },
    {
      "anonymous": false,
      "inputs": [
        {
          "indexed": true,
          "name": "previousOwner",
          "type": "address"
        },
        {
          "indexed": true,
          "name": "newOwner",
          "type": "address"
        }
      ],
      "name": "OwnershipTransferred",
      "type": "event"
    },
    {
      "constant": true,
      "inputs": [],
      "name": "getQuestionsCount",
      "outputs": [
        {
          "name": "",
          "type": "uint256"
        }
      ],
      "payable": false,
      "stateMutability": "view",
      "type": "function"
    },
    {
      "constant": true,
      "inputs": [],
      "name": "getMinBounty",
      "outputs": [
        {
          "name": "",
          "type": "uint256"
        }
      ],
      "payable": false,
      "stateMutability": "view",
      "type": "function"
    },
    {
      "constant": false,
      "inputs": [
        {
          "name": "_minBounty",
          "type": "uint256"
        }
      ],
      "name": "setMinBounty",
      "outputs": [],
      "payable": false,
      "stateMutability": "nonpayable",
      "type": "function"
    },
    {
      "constant": true,
      "inputs": [],
      "name": "getDuration",
      "outputs": [
        {
          "name": "",
          "type": "uint256"
        }
      ],
      "payable": false,
      "stateMutability": "view",
      "type": "function"
    },
    {
      "constant": false,
      "inputs": [
        {
          "name": "_duration",
          "type": "uint256"
        }
      ],
      "name": "setDuration",
      "outputs": [],
      "payable": false,
      "stateMutability": "nonpayable",
      "type": "function"
    },
    {
      "constant": true,
      "inputs": [],
      "name": "getAnswerFee",
      "outputs": [
        {
          "name": "",
          "type": "uint256"
        }
      ],
      "payable": false,
      "stateMutability": "view",
      "type": "function"
    },
    {
      "constant": false,
      "inputs": [
        {
          "name": "_answerFee",
          "type": "uint256"
        }
      ],
      "name": "setAnswerFee",
      "outputs": [],
      "payable": false,
      "stateMutability": "nonpayable",
      "type": "function"
    },
    {
      "constant": false,
      "inputs": [],
      "name": "createQuestion",
      "outputs": [],
      "payable": true,
      "stateMutability": "payable",
      "type": "function"
    }
  ],
  "bytecode": "0x6080604052655af3107a4000600155620151806002556509184e72a00060035534801561002b57600080fd5b50336000806101000a81548173ffffffffffffffffffffffffffffffffffffffff021916908373ffffffffffffffffffffffffffffffffffffffff160217905550336000806101000a81548173ffffffffffffffffffffffffffffffffffffffff021916908373ffffffffffffffffffffffffffffffffffffffff16021790555061094d806100bb6000396000f3006080604052600436106100ba576000357c0100000000000000000000000000000000000000000000000000000000900463ffffffff16806331b1b978146100bf5780633b58f49a1461014c5780634eaa708a14610179578063715018a6146101835780638da5cb5b1461019a578063ad2e8c9b146101f1578063c2e112d21461021c578063c5d5649814610247578063ce9aec2a14610272578063f2fde38b1461029d578063f41c1c93146102e0578063f6be71d11461030d575b600080fd5b3480156100cb57600080fd5b506100ea6004803603810190808035906020019092919050505061033a565b604051808681526020018581526020018473ffffffffffffffffffffffffffffffffffffffff1673ffffffffffffffffffffffffffffffffffffffff168152602001838152602001821515151581526020019550505050505060405180910390f35b34801561015857600080fd5b50610177600480360381019080803590602001909291905050506103ac565b005b610181610411565b005b34801561018f57600080fd5b506101986105b0565b005b3480156101a657600080fd5b506101af6106b2565b604051808273ffffffffffffffffffffffffffffffffffffffff1673ffffffffffffffffffffffffffffffffffffffff16815260200191505060405180910390f35b3480156101fd57600080fd5b506102066106d7565b6040518082815260200191505060405180910390f35b34801561022857600080fd5b506102316106e1565b6040518082815260200191505060405180910390f35b34801561025357600080fd5b5061025c6106ee565b6040518082815260200191505060405180910390f35b34801561027e57600080fd5b506102876106f8565b6040518082815260200191505060405180910390f35b3480156102a957600080fd5b506102de600480360381019080803573ffffffffffffffffffffffffffffffffffffffff169060200190929190505050610702565b005b3480156102ec57600080fd5b5061030b60048036038101908080359060200190929190505050610857565b005b34801561031957600080fd5b50610338600480360381019080803590602001909291905050506108bc565b005b60048181548110151561034957fe5b90600052602060002090600502016000915090508060000154908060010154908060020160009054906101000a900473ffffffffffffffffffffffffffffffffffffffff16908060030154908060040160009054906101000a900460ff16905085565b6000809054906101000a900473ffffffffffffffffffffffffffffffffffffffff1673ffffffffffffffffffffffffffffffffffffffff163373ffffffffffffffffffffffffffffffffffffffff1614151561040757600080fd5b8060018190555050565b6000806001543411151561042457600080fd5b600254420191506001600460a0604051908101604052808581526020013481526020013373ffffffffffffffffffffffffffffffffffffffff16815260200160035481526020016000151581525090806001815401808255809150509060018203906000526020600020906005020160009091929091909150600082015181600001556020820151816001015560408201518160020160006101000a81548173ffffffffffffffffffffffffffffffffffffffff021916908373ffffffffffffffffffffffffffffffffffffffff1602179055506060820151816003015560808201518160040160006101000a81548160ff02191690831515021790555050500390507ff5a9b7fceb3a218fa1aa41ab4dcf7b83c19a3315128cf126ec445de81bf6c26581833433600354604051808681526020018581526020018481526020018373ffffffffffffffffffffffffffffffffffffffff1673ffffffffffffffffffffffffffffffffffffffff1681526020018281526020019550505050505060405180910390a15050565b6000809054906101000a900473ffffffffffffffffffffffffffffffffffffffff1673ffffffffffffffffffffffffffffffffffffffff163373ffffffffffffffffffffffffffffffffffffffff1614151561060b57600080fd5b6000809054906101000a900473ffffffffffffffffffffffffffffffffffffffff1673ffffffffffffffffffffffffffffffffffffffff167ff8df31144d9c2f0f6b59d69b8b98abd5459d07f2742c4df920b25aae33c6482060405160405180910390a260008060006101000a81548173ffffffffffffffffffffffffffffffffffffffff021916908373ffffffffffffffffffffffffffffffffffffffff160217905550565b6000809054906101000a900473ffffffffffffffffffffffffffffffffffffffff1681565b6000600254905090565b6000600480549050905090565b6000600354905090565b6000600154905090565b6000809054906101000a900473ffffffffffffffffffffffffffffffffffffffff1673ffffffffffffffffffffffffffffffffffffffff163373ffffffffffffffffffffffffffffffffffffffff1614151561075d57600080fd5b600073ffffffffffffffffffffffffffffffffffffffff168173ffffffffffffffffffffffffffffffffffffffff161415151561079957600080fd5b8073ffffffffffffffffffffffffffffffffffffffff166000809054906101000a900473ffffffffffffffffffffffffffffffffffffffff1673ffffffffffffffffffffffffffffffffffffffff167f8be0079c531659141344cd1fd0a4f28419497f9722a3daafe3b4186f6b6457e060405160405180910390a3806000806101000a81548173ffffffffffffffffffffffffffffffffffffffff021916908373ffffffffffffffffffffffffffffffffffffffff16021790555050565b6000809054906101000a900473ffffffffffffffffffffffffffffffffffffffff1673ffffffffffffffffffffffffffffffffffffffff163373ffffffffffffffffffffffffffffffffffffffff161415156108b257600080fd5b8060038190555050565b6000809054906101000a900473ffffffffffffffffffffffffffffffffffffffff1673ffffffffffffffffffffffffffffffffffffffff163373ffffffffffffffffffffffffffffffffffffffff1614151561091757600080fd5b80600281905550505600a165627a7a72305820231426d7d9f7b11ea935d9d9ca9ef51800ee504693178d6f55fd999f55931ca80029",
  "source": "pragma solidity ^0.4.23;\n\nimport \"./zeppelin/ownership/Ownable.sol\";\n\n/*\n *\n * Question Factory allows admins to change settings for future \n * questions and allow users to post questions\n *\n */\n\ncontract QuestionFactory is Ownable {\n\n    uint minBounty = 100000000000000 wei;\n    uint duration = 1 days;\n    uint answerFee = 10000000000000 wei;\n\n    /*\n     * NewQuestion is emited everytime a new question bounty is succesfully added\n     */\n\n    event NewQuestion(\n        uint questionId,\n        uint endTime,\n        uint bounty,\n        address asker,\n        uint answerFee\n    );\n    \n    /*\n     * our Question struct contains the data stored in our question\n     */\n\n    struct Question {\n        uint endTime;\n        uint bounty;\n        address asker;\n        uint answerFee;\n        bool payedOut;\n    }\n\n    /*\n     *  All questions are stored added to an array as they are crated\n     */\n\n    Question[] public questions;\n\n    /*\n     * the questionsCount will return how many questions have been ever been posted\n     */ \n\n    function getQuestionsCount() public view returns (uint) {\n        return questions.length;\n    }\n\n    /*\n     * the minBounty is the minimum amount of eth\n     */ \n    function getMinBounty() public view returns (uint) {\n        return minBounty;\n    }\n    \n    function setMinBounty(uint _minBounty) public onlyOwner{\n        minBounty = _minBounty;\n    }\n    \n    /*\n     * the duration is how long new questions are open for voting and answering\n     */\n    function getDuration() public view returns (uint) {\n        return duration;\n    }\n    \n    function setDuration(uint _duration) public onlyOwner {\n        duration = _duration;\n    }\n    \n    /*\n     * the answer fee is the min amount of ether needed to answer a question on the blockchain.\n     */\n    function getAnswerFee() public view returns (uint) {\n        return answerFee;\n    }\n    \n    function setAnswerFee(uint _answerFee) public onlyOwner {\n        answerFee = _answerFee;\n    }\n\n    /*\n     * newQuestion gets called when a user wants to post a new bounty.\n     * First it makes sure teh min value is sent in the transaction.\n     * then it sets the endTime and pushes the question to the questions Array.\n     * finally it emits that the NewQuestion event to the network.\n     */\n    function createQuestion() public payable {\n\n        require(msg.value > minBounty);\n        \n        uint _endTime = now + duration;\n\n        uint id = questions.push(Question(\n            _endTime,\n            msg.value,\n            msg.sender,\n            answerFee,\n            false\n        )) - 1;\n\n        emit NewQuestion(\n            id,\n            _endTime,\n            msg.value,\n            msg.sender,\n            answerFee\n        );\n    }\n\n    /*\n     * The ethereum account that deployed the contract is able to use onlyOwner functions such as changing\n     * the min bounties for future questions and approving ethereum accounts to have voting priveleges.\n     * The functionality of the owner comes from the Ownable contract from the Open Zeppelen library.\n     *\n     */\n    constructor() public {\n        owner = msg.sender;\n    }\n\n    /*\n     * The questionOpen modifier can be added to function signitures to require that the questions endTime has not\n     * passed when a user is trying to post a new answer or a  new upvote.\n     *\n     */\n\n    modifier questionOpen(uint _questionId) {\n        require(now <= questions[_questionId].endTime);\n        _;\n    }\n}\n\n",
  "sourcePath": "/home/williamc/projects/t/thesis/contracts/contracts/QuestionFactory.sol",
  "compiler": {
    "name": "solc",
    "version": "0.4.23+commit.124ca40d.Emscripten.clang"
  },
  "schemaVersion": "2.0.0",
  "updatedAt": "2018-05-22T09:38:43.724Z"
}