{
  "contractName": "QuestionFactory",
  "abi": [
    {
      "constant": true,
      "inputs": [
        {
          "name": "",
          "type": "uint256"
        }
      ],
      "name": "questions",
      "outputs": [
        {
          "name": "minBounty",
          "type": "uint256"
        },
        {
          "name": "duration",
          "type": "uint256"
        },
        {
          "name": "endTime",
          "type": "uint256"
        },
        {
          "name": "bounty",
          "type": "uint256"
        },
        {
          "name": "asker",
          "type": "address"
        },
        {
          "name": "answerFee",
          "type": "uint256"
        },
        {
          "name": "payedOut",
          "type": "bool"
        }
      ],
      "payable": false,
      "stateMutability": "view",
      "type": "function"
    },
    {
      "inputs": [],
      "payable": false,
      "stateMutability": "nonpayable",
      "type": "constructor"
    },
    {
      "anonymous": false,
      "inputs": [
        {
          "indexed": false,
          "name": "questionId",
          "type": "uint256"
        },
        {
          "indexed": false,
          "name": "minBounty",
          "type": "uint256"
        },
        {
          "indexed": false,
          "name": "duration",
          "type": "uint256"
        },
        {
          "indexed": false,
          "name": "endTime",
          "type": "uint256"
        },
        {
          "indexed": false,
          "name": "bounty",
          "type": "uint256"
        },
        {
          "indexed": false,
          "name": "asker",
          "type": "address"
        },
        {
          "indexed": false,
          "name": "answerFee",
          "type": "uint256"
        }
      ],
      "name": "NewQuestion",
      "type": "event"
    },
    {
      "constant": true,
      "inputs": [],
      "name": "getQuestionsCount",
      "outputs": [
        {
          "name": "",
          "type": "uint256"
        }
      ],
      "payable": false,
      "stateMutability": "view",
      "type": "function"
    },
    {
      "constant": true,
      "inputs": [],
      "name": "getMinBounty",
      "outputs": [
        {
          "name": "",
          "type": "uint256"
        }
      ],
      "payable": false,
      "stateMutability": "view",
      "type": "function"
    },
    {
      "constant": false,
      "inputs": [
        {
          "name": "_minBounty",
          "type": "uint256"
        }
      ],
      "name": "setMinBounty",
      "outputs": [],
      "payable": false,
      "stateMutability": "nonpayable",
      "type": "function"
    },
    {
      "constant": true,
      "inputs": [],
      "name": "getDuration",
      "outputs": [
        {
          "name": "",
          "type": "uint256"
        }
      ],
      "payable": false,
      "stateMutability": "view",
      "type": "function"
    },
    {
      "constant": false,
      "inputs": [
        {
          "name": "_duration",
          "type": "uint256"
        }
      ],
      "name": "setDuration",
      "outputs": [],
      "payable": false,
      "stateMutability": "nonpayable",
      "type": "function"
    },
    {
      "constant": true,
      "inputs": [],
      "name": "getAnswerFee",
      "outputs": [
        {
          "name": "",
          "type": "uint256"
        }
      ],
      "payable": false,
      "stateMutability": "view",
      "type": "function"
    },
    {
      "constant": false,
      "inputs": [
        {
          "name": "_answerFee",
          "type": "uint256"
        }
      ],
      "name": "setAnswerFee",
      "outputs": [],
      "payable": false,
      "stateMutability": "nonpayable",
      "type": "function"
    },
    {
      "constant": false,
      "inputs": [],
      "name": "newQuestion",
      "outputs": [],
      "payable": true,
      "stateMutability": "payable",
      "type": "function"
    }
  ],
  "bytecode": "0x608060405234801561001057600080fd5b50336000806101000a81548173ffffffffffffffffffffffffffffffffffffffff021916908373ffffffffffffffffffffffffffffffffffffffff160217905550610651806100606000396000f300608060405260043610610099576000357c0100000000000000000000000000000000000000000000000000000000900463ffffffff16806331b1b9781461009e5780633b58f49a14610139578063ad2e8c9b14610166578063c2e112d214610191578063c5d56498146101bc578063ce9aec2a146101e7578063e10e20ab14610212578063f41c1c931461021c578063f6be71d114610249575b600080fd5b3480156100aa57600080fd5b506100c960048036038101908080359060200190929190505050610276565b604051808881526020018781526020018681526020018581526020018473ffffffffffffffffffffffffffffffffffffffff1673ffffffffffffffffffffffffffffffffffffffff1681526020018381526020018215151515815260200197505050505050505060405180910390f35b34801561014557600080fd5b50610164600480360381019080803590602001909291905050506102f4565b005b34801561017257600080fd5b5061017b610359565b6040518082815260200191505060405180910390f35b34801561019d57600080fd5b506101a6610363565b6040518082815260200191505060405180910390f35b3480156101c857600080fd5b506101d1610370565b6040518082815260200191505060405180910390f35b3480156101f357600080fd5b506101fc61037a565b6040518082815260200191505060405180910390f35b61021a610384565b005b34801561022857600080fd5b506102476004803603810190808035906020019092919050505061055b565b005b34801561025557600080fd5b50610274600480360381019080803590602001909291905050506105c0565b005b60048181548110151561028557fe5b90600052602060002090600702016000915090508060000154908060010154908060020154908060030154908060040160009054906101000a900473ffffffffffffffffffffffffffffffffffffffff16908060050154908060060160009054906101000a900460ff16905087565b6000809054906101000a900473ffffffffffffffffffffffffffffffffffffffff1673ffffffffffffffffffffffffffffffffffffffff163373ffffffffffffffffffffffffffffffffffffffff1614151561034f57600080fd5b8060018190555050565b6000600254905090565b6000600480549050905090565b6000600354905090565b6000600154905090565b6000806001543411151561039757600080fd5b600254420191506001600460e060405190810160405280600154815260200160025481526020018581526020013481526020013373ffffffffffffffffffffffffffffffffffffffff168152602001600354815260200160001515815250908060018154018082558091505090600182039060005260206000209060070201600090919290919091506000820151816000015560208201518160010155604082015181600201556060820151816003015560808201518160040160006101000a81548173ffffffffffffffffffffffffffffffffffffffff021916908373ffffffffffffffffffffffffffffffffffffffff16021790555060a0820151816005015560c08201518160060160006101000a81548160ff02191690831515021790555050500390507fb0761b92d1c7f833c1f295bd18dfd6a18aa9fad5abc1cce13002637203804d4381600154600254853433600354604051808881526020018781526020018681526020018581526020018481526020018373ffffffffffffffffffffffffffffffffffffffff1673ffffffffffffffffffffffffffffffffffffffff16815260200182815260200197505050505050505060405180910390a15050565b6000809054906101000a900473ffffffffffffffffffffffffffffffffffffffff1673ffffffffffffffffffffffffffffffffffffffff163373ffffffffffffffffffffffffffffffffffffffff161415156105b657600080fd5b8060038190555050565b6000809054906101000a900473ffffffffffffffffffffffffffffffffffffffff1673ffffffffffffffffffffffffffffffffffffffff163373ffffffffffffffffffffffffffffffffffffffff1614151561061b57600080fd5b80600281905550505600a165627a7a7230582052afeac463a39ed4b04b567a71c2e05077e70d55e81c5218ebb8a6a2b505937b0029",
  "source": "pragma solidity ^0.4.23;\n\ncontract QuestionFactory {\n\n    address owner;\n    uint minBounty;\n    uint duration;\n    uint answerFee;\n\n    event NewQuestion(\n        uint questionId,\n        uint minBounty,\n        uint duration,\n        uint endTime,\n        uint bounty,\n        address asker,\n        uint answerFee\n    );\n\n    struct Question {\n        uint minBounty;\n        uint duration;\n        uint endTime;\n        uint bounty;\n        address asker;\n        uint answerFee;\n        bool payedOut;\n    }\n\n    Question[] public questions;\n\n    function getQuestionsCount() public view returns (uint) {\n        return questions.length;\n    }\n    \n    function getMinBounty() public view returns (uint) {\n        return minBounty;\n    }\n    \n    function setMinBounty(uint _minBounty) public onlyOwner{\n        minBounty = _minBounty;\n    }\n    \n    function getDuration() public view returns (uint) {\n        return duration;\n    }\n    \n    function setDuration(uint _duration) public onlyOwner {\n        duration = _duration;\n    }\n    \n    function getAnswerFee() public view returns (uint) {\n        return answerFee;\n    }\n    \n    function setAnswerFee(uint _answerFee) public onlyOwner {\n        answerFee = _answerFee;\n    }\n\n    function newQuestion() public payable {\n        require(msg.value > minBounty);\n        \n        uint _endTime = now + duration;\n\n        uint id = questions.push(Question(\n            minBounty,\n            duration,\n            _endTime,\n            msg.value,\n            msg.sender,\n            answerFee,\n            false\n        )) - 1;\n\n        emit NewQuestion(\n            id,\n            minBounty,\n            duration,\n            _endTime,\n            msg.value,\n            msg.sender,\n            answerFee\n        );\n    }\n\n    constructor() public {\n        owner = msg.sender;\n    }\n\n    modifier questionOpen(uint _questionId) {\n        require(now <= questions[_questionId].endTime);\n        _;\n    }\n\n    modifier onlyOwner() {\n        require(msg.sender == owner);\n        _;\n    }\n}\n\n",
  "sourcePath": "/home/williamc/projects/t/thesis/contracts/contracts/QuestionFactory.sol",
  "compiler": {
    "name": "solc",
    "version": "0.4.23+commit.124ca40d.Emscripten.clang"
  },
  "schemaVersion": "2.0.0",
  "updatedAt": "2018-05-21T07:33:42.880Z"
}