{
  "contractName": "UpVote",
  "abi": [
    {
      "constant": true,
      "inputs": [
        {
          "name": "",
          "type": "uint256"
        }
      ],
      "name": "answers",
      "outputs": [
        {
          "name": "owner",
          "type": "address"
        },
        {
          "name": "upvotes",
          "type": "uint256"
        }
      ],
      "payable": false,
      "stateMutability": "view",
      "type": "function"
    },
    {
      "constant": true,
      "inputs": [
        {
          "name": "",
          "type": "uint256"
        }
      ],
      "name": "questions",
      "outputs": [
        {
          "name": "minBounty",
          "type": "uint256"
        },
        {
          "name": "duration",
          "type": "uint256"
        },
        {
          "name": "endTime",
          "type": "uint256"
        },
        {
          "name": "bounty",
          "type": "uint256"
        },
        {
          "name": "asker",
          "type": "address"
        },
        {
          "name": "answerFee",
          "type": "uint256"
        },
        {
          "name": "payedOut",
          "type": "bool"
        }
      ],
      "payable": false,
      "stateMutability": "view",
      "type": "function"
    },
    {
      "constant": true,
      "inputs": [
        {
          "name": "",
          "type": "uint256"
        }
      ],
      "name": "answerIdToQuestionId",
      "outputs": [
        {
          "name": "",
          "type": "uint256"
        }
      ],
      "payable": false,
      "stateMutability": "view",
      "type": "function"
    },
    {
      "constant": false,
      "inputs": [
        {
          "name": "_minBounty",
          "type": "uint256"
        }
      ],
      "name": "setMinBounty",
      "outputs": [],
      "payable": false,
      "stateMutability": "nonpayable",
      "type": "function"
    },
    {
      "constant": true,
      "inputs": [
        {
          "name": "",
          "type": "uint256"
        },
        {
          "name": "",
          "type": "uint256"
        }
      ],
      "name": "questionIdToVoteIds",
      "outputs": [
        {
          "name": "",
          "type": "uint256"
        }
      ],
      "payable": false,
      "stateMutability": "view",
      "type": "function"
    },
    {
      "constant": true,
      "inputs": [
        {
          "name": "",
          "type": "uint256"
        }
      ],
      "name": "votes",
      "outputs": [
        {
          "name": "voter",
          "type": "address"
        },
        {
          "name": "answerId",
          "type": "uint256"
        }
      ],
      "payable": false,
      "stateMutability": "view",
      "type": "function"
    },
    {
      "constant": false,
      "inputs": [
        {
          "name": "_questionId",
          "type": "uint256"
        }
      ],
      "name": "createAnswer",
      "outputs": [],
      "payable": true,
      "stateMutability": "payable",
      "type": "function"
    },
    {
      "constant": true,
      "inputs": [],
      "name": "getDuration",
      "outputs": [
        {
          "name": "",
          "type": "uint256"
        }
      ],
      "payable": false,
      "stateMutability": "view",
      "type": "function"
    },
    {
      "constant": true,
      "inputs": [
        {
          "name": "",
          "type": "address"
        }
      ],
      "name": "reputation",
      "outputs": [
        {
          "name": "",
          "type": "uint256"
        }
      ],
      "payable": false,
      "stateMutability": "view",
      "type": "function"
    },
    {
      "constant": true,
      "inputs": [],
      "name": "getQuestionsCount",
      "outputs": [
        {
          "name": "",
          "type": "uint256"
        }
      ],
      "payable": false,
      "stateMutability": "view",
      "type": "function"
    },
    {
      "constant": true,
      "inputs": [],
      "name": "getAnswerFee",
      "outputs": [
        {
          "name": "",
          "type": "uint256"
        }
      ],
      "payable": false,
      "stateMutability": "view",
      "type": "function"
    },
    {
      "constant": true,
      "inputs": [],
      "name": "getMinBounty",
      "outputs": [
        {
          "name": "",
          "type": "uint256"
        }
      ],
      "payable": false,
      "stateMutability": "view",
      "type": "function"
    },
    {
      "constant": false,
      "inputs": [],
      "name": "newQuestion",
      "outputs": [],
      "payable": true,
      "stateMutability": "payable",
      "type": "function"
    },
    {
      "constant": false,
      "inputs": [
        {
          "name": "_answerFee",
          "type": "uint256"
        }
      ],
      "name": "setAnswerFee",
      "outputs": [],
      "payable": false,
      "stateMutability": "nonpayable",
      "type": "function"
    },
    {
      "constant": false,
      "inputs": [
        {
          "name": "_duration",
          "type": "uint256"
        }
      ],
      "name": "setDuration",
      "outputs": [],
      "payable": false,
      "stateMutability": "nonpayable",
      "type": "function"
    },
    {
      "anonymous": false,
      "inputs": [
        {
          "indexed": false,
          "name": "questionId",
          "type": "uint256"
        },
        {
          "indexed": false,
          "name": "answerId",
          "type": "uint256"
        },
        {
          "indexed": false,
          "name": "answerer",
          "type": "address"
        },
        {
          "indexed": false,
          "name": "_weight",
          "type": "uint256"
        }
      ],
      "name": "NewVote",
      "type": "event"
    },
    {
      "anonymous": false,
      "inputs": [
        {
          "indexed": false,
          "name": "questionId",
          "type": "uint256"
        },
        {
          "indexed": false,
          "name": "answerId",
          "type": "uint256"
        },
        {
          "indexed": false,
          "name": "answerer",
          "type": "address"
        }
      ],
      "name": "NewAnswer",
      "type": "event"
    },
    {
      "anonymous": false,
      "inputs": [
        {
          "indexed": false,
          "name": "questionId",
          "type": "uint256"
        },
        {
          "indexed": false,
          "name": "minBounty",
          "type": "uint256"
        },
        {
          "indexed": false,
          "name": "duration",
          "type": "uint256"
        },
        {
          "indexed": false,
          "name": "endTime",
          "type": "uint256"
        },
        {
          "indexed": false,
          "name": "bounty",
          "type": "uint256"
        },
        {
          "indexed": false,
          "name": "asker",
          "type": "address"
        },
        {
          "indexed": false,
          "name": "answerFee",
          "type": "uint256"
        }
      ],
      "name": "NewQuestion",
      "type": "event"
    },
    {
      "constant": false,
      "inputs": [
        {
          "name": "_startingReputation",
          "type": "uint256"
        }
      ],
      "name": "setStartingReputation",
      "outputs": [],
      "payable": false,
      "stateMutability": "nonpayable",
      "type": "function"
    },
    {
      "constant": false,
      "inputs": [
        {
          "name": "_voter",
          "type": "address"
        },
        {
          "name": "_reputation",
          "type": "uint16"
        }
      ],
      "name": "giveRightToVote",
      "outputs": [],
      "payable": false,
      "stateMutability": "nonpayable",
      "type": "function"
    },
    {
      "constant": false,
      "inputs": [
        {
          "name": "_answerId",
          "type": "uint256"
        }
      ],
      "name": "upVote",
      "outputs": [],
      "payable": false,
      "stateMutability": "nonpayable",
      "type": "function"
    },
    {
      "constant": false,
      "inputs": [
        {
          "name": "_questionId",
          "type": "uint256"
        }
      ],
      "name": "payoutWinner",
      "outputs": [],
      "payable": false,
      "stateMutability": "nonpayable",
      "type": "function"
    }
  ],
  "bytecode": "0x60806040526001600755336000806101000a81548173ffffffffffffffffffffffffffffffffffffffff021916908373ffffffffffffffffffffffffffffffffffffffff1602179055506115c6806100586000396000f300608060405260043610610107576000357c0100000000000000000000000000000000000000000000000000000000900463ffffffff168063115da0721461010c57806317599cc51461013957806331b1b978146101ad5780633a5ae6de146102485780633b58f49a146102895780634c629d4a146102b65780635df813301461030157806360c5c97214610375578063ad2e8c9b14610395578063b9f79451146103c0578063c2e112d214610417578063c5d5649814610442578063ce9aec2a1461046d578063d68fd02a14610498578063e10e20ab146104c5578063ea14ed25146104cf578063ec859db514610520578063f41c1c931461054d578063f6be71d11461057a575b600080fd5b34801561011857600080fd5b50610137600480360381019080803590602001909291905050506105a7565b005b34801561014557600080fd5b506101646004803603810190808035906020019092919050505061060c565b604051808373ffffffffffffffffffffffffffffffffffffffff1673ffffffffffffffffffffffffffffffffffffffff1681526020018281526020019250505060405180910390f35b3480156101b957600080fd5b506101d86004803603810190808035906020019092919050505061065f565b604051808881526020018781526020018681526020018581526020018473ffffffffffffffffffffffffffffffffffffffff1673ffffffffffffffffffffffffffffffffffffffff1681526020018381526020018215151515815260200197505050505050505060405180910390f35b34801561025457600080fd5b50610273600480360381019080803590602001909291905050506106dd565b6040518082815260200191505060405180910390f35b34801561029557600080fd5b506102b4600480360381019080803590602001909291905050506106f5565b005b3480156102c257600080fd5b506102eb600480360381019080803590602001909291908035906020019092919050505061075a565b6040518082815260200191505060405180910390f35b34801561030d57600080fd5b5061032c6004803603810190808035906020019092919050505061078a565b604051808373ffffffffffffffffffffffffffffffffffffffff1673ffffffffffffffffffffffffffffffffffffffff1681526020018281526020019250505060405180910390f35b610393600480360381019080803590602001909291905050506107dd565b005b3480156103a157600080fd5b506103aa610936565b6040518082815260200191505060405180910390f35b3480156103cc57600080fd5b50610401600480360381019080803573ffffffffffffffffffffffffffffffffffffffff169060200190929190505050610940565b6040518082815260200191505060405180910390f35b34801561042357600080fd5b5061042c610958565b6040518082815260200191505060405180910390f35b34801561044e57600080fd5b50610457610965565b6040518082815260200191505060405180910390f35b34801561047957600080fd5b5061048261096f565b6040518082815260200191505060405180910390f35b3480156104a457600080fd5b506104c360048036038101908080359060200190929190505050610979565b005b6104cd610d54565b005b3480156104db57600080fd5b5061051e600480360381019080803573ffffffffffffffffffffffffffffffffffffffff169060200190929190803561ffff169060200190929190505050610f2b565b005b34801561052c57600080fd5b5061054b60048036038101908080359060200190929190505050610fd2565b005b34801561055957600080fd5b506105786004803603810190808035906020019092919050505061131f565b005b34801561058657600080fd5b506105a560048036038101908080359060200190929190505050611384565b005b6000809054906101000a900473ffffffffffffffffffffffffffffffffffffffff1673ffffffffffffffffffffffffffffffffffffffff163373ffffffffffffffffffffffffffffffffffffffff1614151561060257600080fd5b8060078190555050565b60068181548110151561061b57fe5b90600052602060002090600202016000915090508060000160009054906101000a900473ffffffffffffffffffffffffffffffffffffffff16908060010154905082565b60048181548110151561066e57fe5b90600052602060002090600702016000915090508060000154908060010154908060020154908060030154908060040160009054906101000a900473ffffffffffffffffffffffffffffffffffffffff16908060050154908060060160009054906101000a900460ff16905087565b60056020528060005260406000206000915090505481565b6000809054906101000a900473ffffffffffffffffffffffffffffffffffffffff1673ffffffffffffffffffffffffffffffffffffffff163373ffffffffffffffffffffffffffffffffffffffff1614151561075057600080fd5b8060018190555050565b60096020528160005260406000208181548110151561077557fe5b90600052602060002001600091509150505481565b60088181548110151561079957fe5b90600052602060002090600202016000915090508060000160009054906101000a900473ffffffffffffffffffffffffffffffffffffffff16908060010154905082565b60006004828154811015156107ee57fe5b906000526020600020906007020160050154341015151561080e57600080fd5b6001600660408051908101604052803373ffffffffffffffffffffffffffffffffffffffff16815260200160008152509080600181540180825580915050906001820390600052602060002090600202016000909192909190915060008201518160000160006101000a81548173ffffffffffffffffffffffffffffffffffffffff021916908373ffffffffffffffffffffffffffffffffffffffff1602179055506020820151816001015550500390507fe1e68d6c2fb9835e7d7b5bf35cb1d87e6490040c381d19bf7b31d6cda7181074828233604051808481526020018381526020018273ffffffffffffffffffffffffffffffffffffffff1673ffffffffffffffffffffffffffffffffffffffff168152602001935050505060405180910390a15050565b6000600254905090565b600a6020528060005260406000206000915090505481565b6000600480549050905090565b6000600354905090565b6000600154905090565b610981611514565b61098961156a565b60008060048581548110151561099b57fe5b906000526020600020906007020160e06040519081016040529081600082015481526020016001820154815260200160028201548152602001600382015481526020016004820160009054906101000a900473ffffffffffffffffffffffffffffffffffffffff1673ffffffffffffffffffffffffffffffffffffffff1673ffffffffffffffffffffffffffffffffffffffff168152602001600582015481526020016006820160009054906101000a900460ff1615151515815250509350836040015142111515610ad5576040517f08c379a00000000000000000000000000000000000000000000000000000000081526004018080602001828103825260198152602001807f5175657374696f6e206861736e277420656e646564207965740000000000000081525060200191505060405180910390fd5b8360c00151151515610b4f576040517f08c379a000000000000000000000000000000000000000000000000000000000815260040180806020018281038252601a8152602001807f5175657374696f6e20616c7265616479207061796564206f757400000000000081525060200191505060405180910390fd5b60009150600060096000878152602001908152602001600020805490501415610bd957836080015173ffffffffffffffffffffffffffffffffffffffff166108fc3073ffffffffffffffffffffffffffffffffffffffff16319081150290604051600060405180830381858888f19350505050158015610bd3573d6000803e3d6000fd5b50610d4d565b600090505b600680549050811015610cea578460056000838152602001908152602001600020541415610cdd5781600682815481101515610c1657fe5b9060005260206000209060020201600101541115610cdc57600681815481101515610c3d57fe5b9060005260206000209060020201600101549150600681815481101515610c6057fe5b90600052602060002090600202016040805190810160405290816000820160009054906101000a900473ffffffffffffffffffffffffffffffffffffffff1673ffffffffffffffffffffffffffffffffffffffff1673ffffffffffffffffffffffffffffffffffffffff16815260200160018201548152505092505b5b8080600101915050610bde565b826000015173ffffffffffffffffffffffffffffffffffffffff166108fc3073ffffffffffffffffffffffffffffffffffffffff16319081150290604051600060405180830381858888f19350505050158015610d4b573d6000803e3d6000fd5b505b5050505050565b60008060015434111515610d6757600080fd5b600254420191506001600460e060405190810160405280600154815260200160025481526020018581526020013481526020013373ffffffffffffffffffffffffffffffffffffffff168152602001600354815260200160001515815250908060018154018082558091505090600182039060005260206000209060070201600090919290919091506000820151816000015560208201518160010155604082015181600201556060820151816003015560808201518160040160006101000a81548173ffffffffffffffffffffffffffffffffffffffff021916908373ffffffffffffffffffffffffffffffffffffffff16021790555060a0820151816005015560c08201518160060160006101000a81548160ff02191690831515021790555050500390507fb0761b92d1c7f833c1f295bd18dfd6a18aa9fad5abc1cce13002637203804d4381600154600254853433600354604051808881526020018781526020018681526020018581526020018481526020018373ffffffffffffffffffffffffffffffffffffffff1673ffffffffffffffffffffffffffffffffffffffff16815260200182815260200197505050505050505060405180910390a15050565b6000809054906101000a900473ffffffffffffffffffffffffffffffffffffffff1673ffffffffffffffffffffffffffffffffffffffff163373ffffffffffffffffffffffffffffffffffffffff16141515610f8657600080fd5b8061ffff16600a60008473ffffffffffffffffffffffffffffffffffffffff1673ffffffffffffffffffffffffffffffffffffffff168152602001908152602001600020819055505050565b60008060006005600085815260200190815260200160002054600481815481101515610ffa57fe5b906000526020600020906007020160020154421115151561101a57600080fd5b60056000868152602001908152602001600020549350600a60003373ffffffffffffffffffffffffffffffffffffffff1673ffffffffffffffffffffffffffffffffffffffff1681526020019081526020016000205492506000831115156110ea576040517f08c379a000000000000000000000000000000000000000000000000000000000815260040180806020018281038252601e8152602001807f446f206e6f742068617665207065726d697373696f6e20746f20766f7465000081525060200191505060405180910390fd5b6110f484336113e9565b151515611169576040517f08c379a00000000000000000000000000000000000000000000000000000000081526004018080602001828103825260118152602001807f63616e6e6f7420766f746520747769636500000000000000000000000000000081525060200191505060405180910390fd5b6001600860408051908101604052803373ffffffffffffffffffffffffffffffffffffffff168152602001888152509080600181540180825580915050906001820390600052602060002090600202016000909192909190915060008201518160000160006101000a81548173ffffffffffffffffffffffffffffffffffffffff021916908373ffffffffffffffffffffffffffffffffffffffff160217905550602082015181600101555050039150600960008581526020019081526020016000208290806001815401808255809150509060018203906000526020600020016000909192909190915055508260068681548110151561126657fe5b9060005260206000209060020201600101540160068681548110151561128857fe5b9060005260206000209060020201600101819055507fe1b393d8f247bfb19948afd1319f44bc5baf7870f43063542ba1219a223f8d2a84863386604051808581526020018481526020018373ffffffffffffffffffffffffffffffffffffffff1673ffffffffffffffffffffffffffffffffffffffff16815260200182815260200194505050505060405180910390a15050505050565b6000809054906101000a900473ffffffffffffffffffffffffffffffffffffffff1673ffffffffffffffffffffffffffffffffffffffff163373ffffffffffffffffffffffffffffffffffffffff1614151561137a57600080fd5b8060038190555050565b6000809054906101000a900473ffffffffffffffffffffffffffffffffffffffff1673ffffffffffffffffffffffffffffffffffffffff163373ffffffffffffffffffffffffffffffffffffffff161415156113df57600080fd5b8060028190555050565b600060606000806009600087815260200190815260200160002080548060200260200160405190810160405280929190818152602001828054801561144d57602002820191906000526020600020905b815481526020019060010190808311611439575b50505050509250600091505b8251821015611506576008838381518110151561147257fe5b9060200190602002015181548110151561148857fe5b906000526020600020906002020160000160009054906101000a900473ffffffffffffffffffffffffffffffffffffffff1690508073ffffffffffffffffffffffffffffffffffffffff168573ffffffffffffffffffffffffffffffffffffffff1614156114f9576001935061150b565b8180600101925050611459565b600093505b50505092915050565b60e06040519081016040528060008152602001600081526020016000815260200160008152602001600073ffffffffffffffffffffffffffffffffffffffff168152602001600081526020016000151581525090565b6040805190810160405280600073ffffffffffffffffffffffffffffffffffffffff1681526020016000815250905600a165627a7a7230582025f01501bac0d3b236e33646538be8f74db8c17730ebe06a95cd6f8af0404ff80029",
  "source": "pragma solidity ^0.4.23;\n\nimport \"./AnswerFactory.sol\";\n\ncontract UpVote is AnswerFactory {\n\n    uint startingReputation = 1;\n\n    function setStartingReputation(uint _startingReputation) public onlyOwner {\n        startingReputation = _startingReputation;\n    }\n\n    struct Vote {\n        address voter;\n        uint answerId;\n    }\n\n    Vote[] public votes;\n\n    mapping(uint => uint[]) public questionIdToVoteIds;\n\n    mapping(address => uint) public reputation;\n\n    event NewVote(uint questionId, uint answerId, address answerer, uint _weight);\n\n    function giveRightToVote(address _voter, uint16 _reputation) public onlyOwner {\n        reputation[_voter] = _reputation;\n    }\n\n    function didVote(uint _questionId, address _voter) internal view returns (bool) {\n        uint[] memory _questionVotes = questionIdToVoteIds[_questionId];\n\n        for (uint i = 0; i < _questionVotes.length; i++) {\n            address voted = votes[_questionVotes[i]].voter;\n            if (_voter == voted) {\n                return true;\n            }\n        }\n        return false;\n    } \n\n    function upVote(uint _answerId) public questionOpen(answerIdToQuestionId[_answerId]) {\n        uint _questionId = answerIdToQuestionId[_answerId];\n        uint _weight = reputation[msg.sender];\n\n        require(_weight > 0, \"Do not have permission to vote\");        \n        require(!didVote(_questionId, msg.sender), \"cannot vote twice\");\n\n        uint _voteId = votes.push(Vote(msg.sender, _answerId)) - 1;\n        questionIdToVoteIds[_questionId].push(_voteId);\n        answers[_answerId].upvotes = answers[_answerId].upvotes + _weight;\n        \n        emit NewVote(_questionId, _answerId, msg.sender, _weight);\n    }\n\n    function payoutWinner(uint _questionId) public  {\n        Question memory _question = questions[_questionId];\n\n        require(now > _question.endTime, \"Question hasn't ended yet\");\n        require(!_question.payedOut, \"Question already payed out\");\n\n        Answer memory bestAnswer;\n        uint winningScore = 0;\n\n        if (questionIdToVoteIds[_questionId].length == 0) {\n            _question.asker.transfer(address(this).balance);\n        } else {\n            for (uint i = 0; i < answers.length; i++) {\n                if (answerIdToQuestionId[i] == _questionId) {\n                    if(answers[i].upvotes > winningScore) {\n                        winningScore = answers[i].upvotes;\n                        bestAnswer = answers[i];\n                    }\n                }\n            }\n            bestAnswer.owner.transfer(address(this).balance);           \n        }\n    }\n}",
  "sourcePath": "/home/williamc/projects/t/thesis/contracts/contracts/UpVote.sol",
  "compiler": {
    "name": "solc",
    "version": "0.4.23+commit.124ca40d.Emscripten.clang"
  },
  "schemaVersion": "2.0.0",
  "updatedAt": "2018-05-21T07:36:59.412Z"
}