{
  "contractName": "UpVote",
  "abi": [
    {
      "constant": true,
      "inputs": [
        {
          "name": "",
          "type": "uint256"
        }
      ],
      "name": "answers",
      "outputs": [
        {
          "name": "owner",
          "type": "address"
        },
        {
          "name": "upvotes",
          "type": "uint16"
        }
      ],
      "payable": false,
      "stateMutability": "view",
      "type": "function"
    },
    {
      "constant": false,
      "inputs": [],
      "name": "createAnswer",
      "outputs": [],
      "payable": true,
      "stateMutability": "payable",
      "type": "function"
    },
    {
      "constant": true,
      "inputs": [
        {
          "name": "",
          "type": "address"
        }
      ],
      "name": "voters",
      "outputs": [
        {
          "name": "vote",
          "type": "uint256"
        },
        {
          "name": "voted",
          "type": "bool"
        },
        {
          "name": "reputation",
          "type": "uint16"
        }
      ],
      "payable": false,
      "stateMutability": "view",
      "type": "function"
    },
    {
      "constant": false,
      "inputs": [],
      "name": "extendTime",
      "outputs": [],
      "payable": true,
      "stateMutability": "payable",
      "type": "function"
    },
    {
      "anonymous": false,
      "inputs": [
        {
          "indexed": false,
          "name": "answerId",
          "type": "uint256"
        },
        {
          "indexed": false,
          "name": "answerer",
          "type": "address"
        }
      ],
      "name": "NewVote",
      "type": "event"
    },
    {
      "anonymous": false,
      "inputs": [
        {
          "indexed": false,
          "name": "answerId",
          "type": "uint256"
        },
        {
          "indexed": false,
          "name": "answerer",
          "type": "address"
        }
      ],
      "name": "NewAnswer",
      "type": "event"
    },
    {
      "anonymous": false,
      "inputs": [
        {
          "indexed": false,
          "name": "endTime",
          "type": "uint256"
        },
        {
          "indexed": false,
          "name": "bounty",
          "type": "uint256"
        }
      ],
      "name": "TimeExtended",
      "type": "event"
    },
    {
      "constant": false,
      "inputs": [
        {
          "name": "_voter",
          "type": "address"
        },
        {
          "name": "_reputation",
          "type": "uint16"
        }
      ],
      "name": "giveRightToVote",
      "outputs": [],
      "payable": false,
      "stateMutability": "nonpayable",
      "type": "function"
    },
    {
      "constant": false,
      "inputs": [
        {
          "name": "_answerId",
          "type": "uint256"
        }
      ],
      "name": "upVote",
      "outputs": [],
      "payable": false,
      "stateMutability": "nonpayable",
      "type": "function"
    },
    {
      "constant": false,
      "inputs": [],
      "name": "payoutWinner",
      "outputs": [],
      "payable": false,
      "stateMutability": "nonpayable",
      "type": "function"
    }
  ],
  "bytecode": "0x608060405234801561001057600080fd5b50610906806100206000396000f300608060405260043610610083576000357c0100000000000000000000000000000000000000000000000000000000900463ffffffff168063075524631461008857806317599cc51461009f57806391f2eca51461011b578063a3ec138d14610125578063abb6ae8914610196578063ea14ed25146101a0578063ec859db5146101f1575b600080fd5b34801561009457600080fd5b5061009d61021e565b005b3480156100ab57600080fd5b506100ca600480360381019080803590602001909291905050506103e8565b604051808373ffffffffffffffffffffffffffffffffffffffff1673ffffffffffffffffffffffffffffffffffffffff1681526020018261ffff1661ffff1681526020019250505060405180910390f35b610123610445565b005b34801561013157600080fd5b50610166600480360381019080803573ffffffffffffffffffffffffffffffffffffffff169060200190929190505050610590565b60405180848152602001831515151581526020018261ffff1661ffff168152602001935050505060405180910390f35b61019e6105d5565b005b3480156101ac57600080fd5b506101ef600480360381019080803573ffffffffffffffffffffffffffffffffffffffff169060200190929190803561ffff16906020019092919050505061066f565b005b3480156101fd57600080fd5b5061021c6004803603810190808035906020019092919050505061072c565b005b60006102286108a6565b60006002544211151561023a57600080fd5b60016007805490501015610259576201518042016002819055506103e3565b60009250600090505b600780549050811015610380578261ffff1660078281548110151561028357fe5b9060005260206000200160000160149054906101000a900461ffff1661ffff161115610373576007818154811015156102b857fe5b9060005260206000200160000160149054906101000a900461ffff1692506007818154811015156102e557fe5b906000526020600020016040805190810160405290816000820160009054906101000a900473ffffffffffffffffffffffffffffffffffffffff1673ffffffffffffffffffffffffffffffffffffffff1673ffffffffffffffffffffffffffffffffffffffff1681526020016000820160149054906101000a900461ffff1661ffff1661ffff168152505091505b8080600101915050610262565b816000015173ffffffffffffffffffffffffffffffffffffffff166108fc3073ffffffffffffffffffffffffffffffffffffffff16319081150290604051600060405180830381858888f193505050501580156103e1573d6000803e3d6000fd5b505b505050565b6007818154811015156103f757fe5b906000526020600020016000915090508060000160009054906101000a900473ffffffffffffffffffffffffffffffffffffffff16908060000160149054906101000a900461ffff16905082565b6000600654341015151561045857600080fd5b6001600760408051908101604052803373ffffffffffffffffffffffffffffffffffffffff168152602001600061ffff1681525090806001815401808255809150509060018203906000526020600020016000909192909190915060008201518160000160006101000a81548173ffffffffffffffffffffffffffffffffffffffff021916908373ffffffffffffffffffffffffffffffffffffffff16021790555060208201518160000160146101000a81548161ffff021916908361ffff16021790555050500390507f88085c10096cc135e6ad1e349dae731e044ffa7b1ce1375a9b992e099460cf5f8133604051808381526020018273ffffffffffffffffffffffffffffffffffffffff1673ffffffffffffffffffffffffffffffffffffffff1681526020019250505060405180910390a150565b60086020528060005260406000206000915090508060000154908060010160009054906101000a900460ff16908060010160019054906101000a900461ffff16905083565b60025442111515156105e657600080fd5b62278d006001541080156105fb575060005434115b151561060657600080fd5b6000546003600082825401925050819055506001546002600082825401925050819055507fc911152b4f80a4c74cd160fe78fa7758dfc5c82284a3eddb9475c730f0cd4e06600254600354604051808381526020018281526020019250505060405180910390a1565b600560009054906101000a900473ffffffffffffffffffffffffffffffffffffffff1673ffffffffffffffffffffffffffffffffffffffff163373ffffffffffffffffffffffffffffffffffffffff161415156106cb57600080fd5b80600860008473ffffffffffffffffffffffffffffffffffffffff1673ffffffffffffffffffffffffffffffffffffffff16815260200190815260200160002060010160016101000a81548161ffff021916908361ffff1602179055505050565b6000600254421115151561073f57600080fd5b600860003373ffffffffffffffffffffffffffffffffffffffff1673ffffffffffffffffffffffffffffffffffffffff16815260200190815260200160002090508060010160009054906101000a900460ff16151515610807576040517f08c379a00000000000000000000000000000000000000000000000000000000081526004018080602001828103825260118152602001807f63616e6e6f7420766f746520747769636500000000000000000000000000000081525060200191505060405180910390fd5b60018160010160006101000a81548160ff0219169083151502179055508181600001819055508060010160019054906101000a900461ffff1660078381548110151561084f57fe5b9060005260206000200160000160149054906101000a900461ffff160160078381548110151561087b57fe5b9060005260206000200160000160146101000a81548161ffff021916908361ffff1602179055505050565b6040805190810160405280600073ffffffffffffffffffffffffffffffffffffffff168152602001600061ffff16815250905600a165627a7a72305820b91680b7958dae326f08919ca0544a5bfa581e1bc8321a8e8db70b8d368d66b50029",
  "source": "pragma solidity ^0.4.23;\n\nimport \"./AnswerFactory.sol\";\n\ncontract UpVote is AnswerFactory {\n    \n    struct Voter {\n        uint vote;\n        bool voted;\n        uint16 reputation;\n    }\n\n    mapping(address => Voter) public voters;\n\n    event NewVote(uint answerId, address answerer);\n\n    function giveRightToVote(address _voter, uint16 _reputation) public onlyOwner {\n        voters[_voter].reputation = _reputation;\n    }\n\n    function upVote(uint _answerId) public questionOpen {\n        Voter storage sender = voters[msg.sender];\n        require(!sender.voted, \"cannot vote twice\");\n        sender.voted = true;\n        sender.vote = _answerId;\n\n        answers[_answerId].upvotes = answers[_answerId].upvotes + sender.reputation;\n    }\n\n    function payoutWinner() public  {\n        require(now > endTime);\n        if (answers.length < 1) {\n            endTime = now + 1 days;\n        } else {\n            uint16 _winningVotes = 0;\n            Answer memory winner;\n            for (uint a = 0; a < answers.length; a++) {\n                if (answers[a].upvotes > _winningVotes) {\n                    _winningVotes = answers[a].upvotes;\n                    winner = answers[a];\n                }\n            }\n            winner.owner.transfer(address(this).balance);\n        }\n        \n    }\n}",
  "sourcePath": "/home/williamc/projects/t/thesis/contracts/contracts/UpVote.sol",
  "compiler": {
    "name": "solc",
    "version": "0.4.23+commit.124ca40d.Emscripten.clang"
  },
  "schemaVersion": "2.0.0",
  "updatedAt": "2018-05-19T23:06:38.752Z"
}