{
  "contractName": "UpVote",
  "abi": [
    {
      "constant": true,
      "inputs": [
        {
          "name": "",
          "type": "uint256"
        }
      ],
      "name": "answers",
      "outputs": [
        {
          "name": "owner",
          "type": "address"
        },
        {
          "name": "upvotes",
          "type": "uint256"
        }
      ],
      "payable": false,
      "stateMutability": "view",
      "type": "function"
    },
    {
      "constant": true,
      "inputs": [
        {
          "name": "",
          "type": "uint256"
        }
      ],
      "name": "questions",
      "outputs": [
        {
          "name": "endTime",
          "type": "uint256"
        },
        {
          "name": "bounty",
          "type": "uint256"
        },
        {
          "name": "asker",
          "type": "address"
        },
        {
          "name": "answerFee",
          "type": "uint256"
        },
        {
          "name": "payedOut",
          "type": "bool"
        }
      ],
      "payable": false,
      "stateMutability": "view",
      "type": "function"
    },
    {
      "constant": true,
      "inputs": [
        {
          "name": "",
          "type": "uint256"
        }
      ],
      "name": "answerIdToQuestionId",
      "outputs": [
        {
          "name": "",
          "type": "uint256"
        }
      ],
      "payable": false,
      "stateMutability": "view",
      "type": "function"
    },
    {
      "constant": false,
      "inputs": [
        {
          "name": "_minBounty",
          "type": "uint256"
        }
      ],
      "name": "setMinBounty",
      "outputs": [],
      "payable": false,
      "stateMutability": "nonpayable",
      "type": "function"
    },
    {
      "constant": true,
      "inputs": [
        {
          "name": "",
          "type": "uint256"
        },
        {
          "name": "",
          "type": "uint256"
        }
      ],
      "name": "questionIdToVoteIds",
      "outputs": [
        {
          "name": "",
          "type": "uint256"
        }
      ],
      "payable": false,
      "stateMutability": "view",
      "type": "function"
    },
    {
      "constant": false,
      "inputs": [],
      "name": "createQuestion",
      "outputs": [],
      "payable": true,
      "stateMutability": "payable",
      "type": "function"
    },
    {
      "constant": true,
      "inputs": [
        {
          "name": "",
          "type": "uint256"
        }
      ],
      "name": "votes",
      "outputs": [
        {
          "name": "voter",
          "type": "address"
        },
        {
          "name": "answerId",
          "type": "uint256"
        }
      ],
      "payable": false,
      "stateMutability": "view",
      "type": "function"
    },
    {
      "constant": false,
      "inputs": [
        {
          "name": "_questionId",
          "type": "uint256"
        }
      ],
      "name": "createAnswer",
      "outputs": [],
      "payable": true,
      "stateMutability": "payable",
      "type": "function"
    },
    {
      "constant": false,
      "inputs": [],
      "name": "renounceOwnership",
      "outputs": [],
      "payable": false,
      "stateMutability": "nonpayable",
      "type": "function"
    },
    {
      "constant": true,
      "inputs": [],
      "name": "owner",
      "outputs": [
        {
          "name": "",
          "type": "address"
        }
      ],
      "payable": false,
      "stateMutability": "view",
      "type": "function"
    },
    {
      "constant": true,
      "inputs": [],
      "name": "getDuration",
      "outputs": [
        {
          "name": "",
          "type": "uint256"
        }
      ],
      "payable": false,
      "stateMutability": "view",
      "type": "function"
    },
    {
      "constant": true,
      "inputs": [
        {
          "name": "",
          "type": "address"
        }
      ],
      "name": "reputation",
      "outputs": [
        {
          "name": "",
          "type": "uint256"
        }
      ],
      "payable": false,
      "stateMutability": "view",
      "type": "function"
    },
    {
      "constant": true,
      "inputs": [],
      "name": "getQuestionsCount",
      "outputs": [
        {
          "name": "",
          "type": "uint256"
        }
      ],
      "payable": false,
      "stateMutability": "view",
      "type": "function"
    },
    {
      "constant": true,
      "inputs": [],
      "name": "getAnswerFee",
      "outputs": [
        {
          "name": "",
          "type": "uint256"
        }
      ],
      "payable": false,
      "stateMutability": "view",
      "type": "function"
    },
    {
      "constant": true,
      "inputs": [],
      "name": "getMinBounty",
      "outputs": [
        {
          "name": "",
          "type": "uint256"
        }
      ],
      "payable": false,
      "stateMutability": "view",
      "type": "function"
    },
    {
      "constant": false,
      "inputs": [
        {
          "name": "newOwner",
          "type": "address"
        }
      ],
      "name": "transferOwnership",
      "outputs": [],
      "payable": false,
      "stateMutability": "nonpayable",
      "type": "function"
    },
    {
      "constant": false,
      "inputs": [
        {
          "name": "_answerFee",
          "type": "uint256"
        }
      ],
      "name": "setAnswerFee",
      "outputs": [],
      "payable": false,
      "stateMutability": "nonpayable",
      "type": "function"
    },
    {
      "constant": false,
      "inputs": [
        {
          "name": "_duration",
          "type": "uint256"
        }
      ],
      "name": "setDuration",
      "outputs": [],
      "payable": false,
      "stateMutability": "nonpayable",
      "type": "function"
    },
    {
      "anonymous": false,
      "inputs": [
        {
          "indexed": false,
          "name": "questionId",
          "type": "uint256"
        },
        {
          "indexed": false,
          "name": "answerId",
          "type": "uint256"
        },
        {
          "indexed": false,
          "name": "answerer",
          "type": "address"
        },
        {
          "indexed": false,
          "name": "_weight",
          "type": "uint256"
        }
      ],
      "name": "NewVote",
      "type": "event"
    },
    {
      "anonymous": false,
      "inputs": [
        {
          "indexed": false,
          "name": "questionId",
          "type": "uint256"
        },
        {
          "indexed": false,
          "name": "answerId",
          "type": "uint256"
        },
        {
          "indexed": false,
          "name": "answerer",
          "type": "address"
        }
      ],
      "name": "NewAnswer",
      "type": "event"
    },
    {
      "anonymous": false,
      "inputs": [
        {
          "indexed": false,
          "name": "questionId",
          "type": "uint256"
        },
        {
          "indexed": false,
          "name": "endTime",
          "type": "uint256"
        },
        {
          "indexed": false,
          "name": "bounty",
          "type": "uint256"
        },
        {
          "indexed": false,
          "name": "asker",
          "type": "address"
        },
        {
          "indexed": false,
          "name": "answerFee",
          "type": "uint256"
        }
      ],
      "name": "NewQuestion",
      "type": "event"
    },
    {
      "anonymous": false,
      "inputs": [
        {
          "indexed": true,
          "name": "previousOwner",
          "type": "address"
        }
      ],
      "name": "OwnershipRenounced",
      "type": "event"
    },
    {
      "anonymous": false,
      "inputs": [
        {
          "indexed": true,
          "name": "previousOwner",
          "type": "address"
        },
        {
          "indexed": true,
          "name": "newOwner",
          "type": "address"
        }
      ],
      "name": "OwnershipTransferred",
      "type": "event"
    },
    {
      "constant": false,
      "inputs": [
        {
          "name": "_voter",
          "type": "address"
        },
        {
          "name": "_reputation",
          "type": "uint16"
        }
      ],
      "name": "giveRightToVote",
      "outputs": [],
      "payable": false,
      "stateMutability": "nonpayable",
      "type": "function"
    },
    {
      "constant": false,
      "inputs": [
        {
          "name": "_answerId",
          "type": "uint256"
        }
      ],
      "name": "upVote",
      "outputs": [],
      "payable": false,
      "stateMutability": "nonpayable",
      "type": "function"
    },
    {
      "constant": false,
      "inputs": [
        {
          "name": "_questionId",
          "type": "uint256"
        }
      ],
      "name": "payoutWinner",
      "outputs": [],
      "payable": false,
      "stateMutability": "nonpayable",
      "type": "function"
    }
  ],
  "bytecode": "0x6080604052655af3107a4000600155620151806002556509184e72a000600355336000806101000a81548173ffffffffffffffffffffffffffffffffffffffff021916908373ffffffffffffffffffffffffffffffffffffffff160217905550336000806101000a81548173ffffffffffffffffffffffffffffffffffffffff021916908373ffffffffffffffffffffffffffffffffffffffff16021790555061179e806100ae6000396000f30060806040526004361061011d576000357c0100000000000000000000000000000000000000000000000000000000900463ffffffff16806317599cc51461012257806331b1b978146101965780633a5ae6de146102235780633b58f49a146102645780634c629d4a146102915780634eaa708a146102dc5780635df81330146102e657806360c5c9721461035a578063715018a61461037a5780638da5cb5b14610391578063ad2e8c9b146103e8578063b9f7945114610413578063c2e112d21461046a578063c5d5649814610495578063ce9aec2a146104c0578063d68fd02a146104eb578063ea14ed2514610518578063ec859db514610569578063f2fde38b14610596578063f41c1c93146105d9578063f6be71d114610606575b600080fd5b34801561012e57600080fd5b5061014d60048036038101908080359060200190929190505050610633565b604051808373ffffffffffffffffffffffffffffffffffffffff1673ffffffffffffffffffffffffffffffffffffffff1681526020018281526020019250505060405180910390f35b3480156101a257600080fd5b506101c160048036038101908080359060200190929190505050610686565b604051808681526020018581526020018473ffffffffffffffffffffffffffffffffffffffff1673ffffffffffffffffffffffffffffffffffffffff168152602001838152602001821515151581526020019550505050505060405180910390f35b34801561022f57600080fd5b5061024e600480360381019080803590602001909291905050506106f8565b6040518082815260200191505060405180910390f35b34801561027057600080fd5b5061028f60048036038101908080359060200190929190505050610710565b005b34801561029d57600080fd5b506102c66004803603810190808035906020019092919080359060200190929190505050610775565b6040518082815260200191505060405180910390f35b6102e46107a5565b005b3480156102f257600080fd5b5061031160048036038101908080359060200190929190505050610944565b604051808373ffffffffffffffffffffffffffffffffffffffff1673ffffffffffffffffffffffffffffffffffffffff1681526020018281526020019250505060405180910390f35b61037860048036038101908080359060200190929190505050610997565b005b34801561038657600080fd5b5061038f610b39565b005b34801561039d57600080fd5b506103a6610c3b565b604051808273ffffffffffffffffffffffffffffffffffffffff1673ffffffffffffffffffffffffffffffffffffffff16815260200191505060405180910390f35b3480156103f457600080fd5b506103fd610c60565b6040518082815260200191505060405180910390f35b34801561041f57600080fd5b50610454600480360381019080803573ffffffffffffffffffffffffffffffffffffffff169060200190929190505050610c6a565b6040518082815260200191505060405180910390f35b34801561047657600080fd5b5061047f610c82565b6040518082815260200191505060405180910390f35b3480156104a157600080fd5b506104aa610c8f565b6040518082815260200191505060405180910390f35b3480156104cc57600080fd5b506104d5610c99565b6040518082815260200191505060405180910390f35b3480156104f757600080fd5b5061051660048036038101908080359060200190929190505050610ca3565b005b34801561052457600080fd5b50610567600480360381019080803573ffffffffffffffffffffffffffffffffffffffff169060200190929190803561ffff169060200190929190505050611004565b005b34801561057557600080fd5b50610594600480360381019080803590602001909291905050506110ab565b005b3480156105a257600080fd5b506105d7600480360381019080803573ffffffffffffffffffffffffffffffffffffffff1690602001909291905050506113f8565b005b3480156105e557600080fd5b506106046004803603810190808035906020019092919050505061154d565b005b34801561061257600080fd5b50610631600480360381019080803590602001909291905050506115b2565b005b60068181548110151561064257fe5b90600052602060002090600202016000915090508060000160009054906101000a900473ffffffffffffffffffffffffffffffffffffffff16908060010154905082565b60048181548110151561069557fe5b90600052602060002090600502016000915090508060000154908060010154908060020160009054906101000a900473ffffffffffffffffffffffffffffffffffffffff16908060030154908060040160009054906101000a900460ff16905085565b60056020528060005260406000206000915090505481565b6000809054906101000a900473ffffffffffffffffffffffffffffffffffffffff1673ffffffffffffffffffffffffffffffffffffffff163373ffffffffffffffffffffffffffffffffffffffff1614151561076b57600080fd5b8060018190555050565b60086020528160005260406000208181548110151561079057fe5b90600052602060002001600091509150505481565b600080600154341115156107b857600080fd5b600254420191506001600460a0604051908101604052808581526020013481526020013373ffffffffffffffffffffffffffffffffffffffff16815260200160035481526020016000151581525090806001815401808255809150509060018203906000526020600020906005020160009091929091909150600082015181600001556020820151816001015560408201518160020160006101000a81548173ffffffffffffffffffffffffffffffffffffffff021916908373ffffffffffffffffffffffffffffffffffffffff1602179055506060820151816003015560808201518160040160006101000a81548160ff02191690831515021790555050500390507ff5a9b7fceb3a218fa1aa41ab4dcf7b83c19a3315128cf126ec445de81bf6c26581833433600354604051808681526020018581526020018481526020018373ffffffffffffffffffffffffffffffffffffffff1673ffffffffffffffffffffffffffffffffffffffff1681526020018281526020019550505050505060405180910390a15050565b60078181548110151561095357fe5b90600052602060002090600202016000915090508060000160009054906101000a900473ffffffffffffffffffffffffffffffffffffffff16908060010154905082565b6000816004818154811015156109a957fe5b90600052602060002090600502016000015442111515156109c957600080fd5b6004838154811015156109d857fe5b90600052602060002090600502016003015434101515156109f857600080fd5b6001600660408051908101604052803373ffffffffffffffffffffffffffffffffffffffff16815260200160008152509080600181540180825580915050906001820390600052602060002090600202016000909192909190915060008201518160000160006101000a81548173ffffffffffffffffffffffffffffffffffffffff021916908373ffffffffffffffffffffffffffffffffffffffff1602179055506020820151816001015550500391508260056000848152602001908152602001600020819055507fe1e68d6c2fb9835e7d7b5bf35cb1d87e6490040c381d19bf7b31d6cda7181074838333604051808481526020018381526020018273ffffffffffffffffffffffffffffffffffffffff1673ffffffffffffffffffffffffffffffffffffffff168152602001935050505060405180910390a1505050565b6000809054906101000a900473ffffffffffffffffffffffffffffffffffffffff1673ffffffffffffffffffffffffffffffffffffffff163373ffffffffffffffffffffffffffffffffffffffff16141515610b9457600080fd5b6000809054906101000a900473ffffffffffffffffffffffffffffffffffffffff1673ffffffffffffffffffffffffffffffffffffffff167ff8df31144d9c2f0f6b59d69b8b98abd5459d07f2742c4df920b25aae33c6482060405160405180910390a260008060006101000a81548173ffffffffffffffffffffffffffffffffffffffff021916908373ffffffffffffffffffffffffffffffffffffffff160217905550565b6000809054906101000a900473ffffffffffffffffffffffffffffffffffffffff1681565b6000600254905090565b60096020528060005260406000206000915090505481565b6000600480549050905090565b6000600354905090565b6000600154905090565b610cab611742565b600080600080600486815481101515610cc057fe5b90600052602060002090600502016000015442111515610cdf57600080fd5b600486815481101515610cee57fe5b906000526020600020906005020160040160009054906101000a900460ff16151515610d82576040517f08c379a000000000000000000000000000000000000000000000000000000000815260040180806020018281038252601a8152602001807f5175657374696f6e20616c7265616479207061796564206f757400000000000081525060200191505060405180910390fd5b60009350600486815481101515610d9557fe5b9060005260206000209060050201600101549250600486815481101515610db857fe5b9060005260206000209060050201600301549150600090505b600680549050811015610ee2578560056000838152602001908152602001600020541415610ed557818301925083600682815481101515610e0e57fe5b9060005260206000209060020201600101541115610ed457600681815481101515610e3557fe5b9060005260206000209060020201600101549350600681815481101515610e5857fe5b90600052602060002090600202016040805190810160405290816000820160009054906101000a900473ffffffffffffffffffffffffffffffffffffffff1673ffffffffffffffffffffffffffffffffffffffff1673ffffffffffffffffffffffffffffffffffffffff16815260200160018201548152505094505b5b8080600101915050610dd1565b6001600487815481101515610ef357fe5b906000526020600020906005020160040160006101000a81548160ff0219169083151502179055506000841415610fb057600486815481101515610f3357fe5b906000526020600020906005020160020160009054906101000a900473ffffffffffffffffffffffffffffffffffffffff1673ffffffffffffffffffffffffffffffffffffffff166108fc849081150290604051600060405180830381858888f19350505050158015610faa573d6000803e3d6000fd5b50610ffc565b846000015173ffffffffffffffffffffffffffffffffffffffff166108fc849081150290604051600060405180830381858888f19350505050158015610ffa573d6000803e3d6000fd5b505b505050505050565b6000809054906101000a900473ffffffffffffffffffffffffffffffffffffffff1673ffffffffffffffffffffffffffffffffffffffff163373ffffffffffffffffffffffffffffffffffffffff1614151561105f57600080fd5b8061ffff16600960008473ffffffffffffffffffffffffffffffffffffffff1673ffffffffffffffffffffffffffffffffffffffff168152602001908152602001600020819055505050565b600080600060056000858152602001908152602001600020546004818154811015156110d357fe5b90600052602060002090600502016000015442111515156110f357600080fd5b60056000868152602001908152602001600020549350600960003373ffffffffffffffffffffffffffffffffffffffff1673ffffffffffffffffffffffffffffffffffffffff1681526020019081526020016000205492506000831115156111c3576040517f08c379a000000000000000000000000000000000000000000000000000000000815260040180806020018281038252601e8152602001807f446f206e6f742068617665207065726d697373696f6e20746f20766f7465000081525060200191505060405180910390fd5b6111cd8433611617565b151515611242576040517f08c379a00000000000000000000000000000000000000000000000000000000081526004018080602001828103825260118152602001807f63616e6e6f7420766f746520747769636500000000000000000000000000000081525060200191505060405180910390fd5b6001600760408051908101604052803373ffffffffffffffffffffffffffffffffffffffff168152602001888152509080600181540180825580915050906001820390600052602060002090600202016000909192909190915060008201518160000160006101000a81548173ffffffffffffffffffffffffffffffffffffffff021916908373ffffffffffffffffffffffffffffffffffffffff160217905550602082015181600101555050039150600860008581526020019081526020016000208290806001815401808255809150509060018203906000526020600020016000909192909190915055508260068681548110151561133f57fe5b9060005260206000209060020201600101540160068681548110151561136157fe5b9060005260206000209060020201600101819055507fe1b393d8f247bfb19948afd1319f44bc5baf7870f43063542ba1219a223f8d2a84863386604051808581526020018481526020018373ffffffffffffffffffffffffffffffffffffffff1673ffffffffffffffffffffffffffffffffffffffff16815260200182815260200194505050505060405180910390a15050505050565b6000809054906101000a900473ffffffffffffffffffffffffffffffffffffffff1673ffffffffffffffffffffffffffffffffffffffff163373ffffffffffffffffffffffffffffffffffffffff1614151561145357600080fd5b600073ffffffffffffffffffffffffffffffffffffffff168173ffffffffffffffffffffffffffffffffffffffff161415151561148f57600080fd5b8073ffffffffffffffffffffffffffffffffffffffff166000809054906101000a900473ffffffffffffffffffffffffffffffffffffffff1673ffffffffffffffffffffffffffffffffffffffff167f8be0079c531659141344cd1fd0a4f28419497f9722a3daafe3b4186f6b6457e060405160405180910390a3806000806101000a81548173ffffffffffffffffffffffffffffffffffffffff021916908373ffffffffffffffffffffffffffffffffffffffff16021790555050565b6000809054906101000a900473ffffffffffffffffffffffffffffffffffffffff1673ffffffffffffffffffffffffffffffffffffffff163373ffffffffffffffffffffffffffffffffffffffff161415156115a857600080fd5b8060038190555050565b6000809054906101000a900473ffffffffffffffffffffffffffffffffffffffff1673ffffffffffffffffffffffffffffffffffffffff163373ffffffffffffffffffffffffffffffffffffffff1614151561160d57600080fd5b8060028190555050565b600060606000806008600087815260200190815260200160002080548060200260200160405190810160405280929190818152602001828054801561167b57602002820191906000526020600020905b815481526020019060010190808311611667575b50505050509250600091505b825182101561173457600783838151811015156116a057fe5b906020019060200201518154811015156116b657fe5b906000526020600020906002020160000160009054906101000a900473ffffffffffffffffffffffffffffffffffffffff1690508073ffffffffffffffffffffffffffffffffffffffff168573ffffffffffffffffffffffffffffffffffffffff1614156117275760019350611739565b8180600101925050611687565b600093505b50505092915050565b6040805190810160405280600073ffffffffffffffffffffffffffffffffffffffff1681526020016000815250905600a165627a7a723058208a31a5a745f72d9198816a2941399e053725d5ff460abd3d0684e4b884f691a20029",
  "source": "pragma solidity ^0.4.23;\n\nimport \"./AnswerFactory.sol\";\n\n/*\n * The upvote contract allows users to upvote their favorite answers.\n * Users must be given the ability to vote by the Owner of the contract\n * they are only allowed to vote once per question.\n * A future edition of this contract plans on implementing a single transferable vote\n * as well as making reputation and ability to vote more decentralized\n *\n */\ncontract UpVote is AnswerFactory {\n\n    /*\n     * information for each vote and the voters is stored in a mix of structs and mappings.\n     * the Vote struct stores the address of the voter and which answr they voted for.\n     */     \n    struct Vote {\n        address voter;\n        uint answerId;\n    }\n\n    /*\n     * just like answers and questions all Votes are stored in an array.\n     */\n    Vote[] public votes;\n\n    /*\n     * all questions can find the indexes of their votes with the questionIdToVoteIds mapping\n     */\n    mapping(uint => uint[]) public questionIdToVoteIds;\n\n    /*\n     * Reputation is the weight of a voters vote.   They must be given a reputation of at least 1 by the owner\n     * to be able to vote on any answer.\n     */\n    mapping(address => uint) public reputation;\n\n    /*\n     * NewVote is emitted to the network whenever a vote is successfully posted\n     */\n    event NewVote(uint questionId, uint answerId, address answerer, uint _weight);\n\n    /*\n     * giveRightToVote is how the owner gives users the ability to vote.\n     */\n    function giveRightToVote(address _voter, uint16 _reputation) public onlyOwner {\n        reputation[_voter] = _reputation;\n    }\n\n    /*\n     * didVote is a helperfunction only used to check to see if a user already voted in the \n     * upVote function.  It is declared as an view function to save gas.\n     * it loops through all the questionVotes to see if the user is one of them.\n     * Though this method seems inefficient compared to making a special mapping or array for this\n     * functionality, it is preferable because storage on the blockchain is the a more expensive operation\n     * in terms of gas than a O(n) for loop.\n     */\n    function didVote(uint _questionId, address _voter) internal view returns (bool) {\n        uint[] memory _questionVotes = questionIdToVoteIds[_questionId];\n\n        for (uint i = 0; i < _questionVotes.length; i++) {\n            address voted = votes[_questionVotes[i]].voter;\n            if (_voter == voted) {\n                return true;\n            }\n        }\n        return false;\n    } \n\n    /*\n     * upVote allows users to vote for their favorite answer.\n     * first it makes sure the ethereum address has voting priveleges and hasn't voted yet.\n     * then it pushes the vote to both the votearray and the questionIdToVoteIds array\n     * it updates how many upvotes the answer has and then finally emits a NewVote event to the network\n     */\n    function upVote(uint _answerId) public questionOpen(answerIdToQuestionId[_answerId]) {\n        uint _questionId = answerIdToQuestionId[_answerId];\n        uint _weight = reputation[msg.sender];\n\n        require(_weight > 0, \"Do not have permission to vote\");        \n        require(!didVote(_questionId, msg.sender), \"cannot vote twice\");\n\n        uint _voteId = votes.push(Vote(msg.sender, _answerId)) - 1;\n        questionIdToVoteIds[_questionId].push(_voteId);\n        answers[_answerId].upvotes = answers[_answerId].upvotes + _weight;\n        \n        emit NewVote(_questionId, _answerId, msg.sender, _weight);\n    }\n\n    /*\n     * payoutWinner allows any users to withdraw their winnings if they get the most upvotes.\n     * first the function checks to see if teh question has ended and hasn't alredy been payed out.\n     * It creates a memory variable to track the bestAnswer.  memory means it doesn't write to the blockchain\n     * and thus costs less gas than a storage variable.  It also tracks the winning score and the amount of bounty\n     * the winner shoudl recieve.\n     * If no answers have been upvoted, the bounty is sent to the user who asked the question as well as \n     * \n     * Otherwise payoutWinner loops through answers checking if the upvotes are greater than the current winner \n     * adding the answer bounties to the total bounty as it goes.\n     *\n     * if no answers exist or no answers have upvotes, the bounty is refunded to the questionAsker\n     * otherwise the best answer is payed out. \n     */\n    function payoutWinner(uint _questionId) public  {\n        require(now > questions[_questionId].endTime);\n        require(!questions[_questionId].payedOut, \"Question already payed out\");\n\n        Answer memory bestAnswer;\n        uint winningScore = 0;\n        uint winningBounty = questions[_questionId].bounty;\n        uint answerFee = questions[_questionId].answerFee;\n        \n        for (uint i = 0; i < answers.length; i++) {\n            if (answerIdToQuestionId[i] == _questionId) {\n                winningBounty = winningBounty + answerFee;\n                if(answers[i].upvotes > winningScore) {\n                    winningScore = answers[i].upvotes;\n                    bestAnswer = answers[i];\n                }\n            }\n        }\n        questions[_questionId].payedOut = true;\n        if (winningScore == 0) {\n            questions[_questionId].asker.transfer(winningBounty);\n        } else {\n            bestAnswer.owner.transfer(winningBounty);           \n        }\n    }\n}",
  "sourcePath": "/home/williamc/projects/t/thesis/contracts/contracts/UpVote.sol",
  "compiler": {
    "name": "solc",
    "version": "0.4.23+commit.124ca40d.Emscripten.clang"
  },
  "schemaVersion": "2.0.0",
  "updatedAt": "2018-05-22T09:41:50.855Z"
}